:020000040000FA
:0600000002010A021C7659
:03002B000220E4CC
:030033000220C6E2
:03003B000220FDA3
:0300430002207A1E
:03005300021CECA0
:03006B000220A0D0
:10008300021B67E5C754F84401F5C7790122000054
:100093000080FB120086B900030200F4E4792178A2
:1000A30008B800028004F709D8FCE479297802B87B
:1000B30000028004F709D8FCE49002817865790A8C
:1000C3008002F0A3D8FCD9FA900BE5AA82AB839007
:1000D300013A78CA79038015E493A3AC82AD838A8D
:1000E300828B83F0A3AA82AB838C828D83D8E9D9D8
:1000F300E7758240758392740312011C75829175B2
:100103008300740012011C75D00075813F7518813E
:10011300751902759F00020096C09FF59FE473D086
:100123009F22D083D082C09FE493C0E0740193C028
:10013300E0740293F59F22FF0000B400002800281A
:1001430000283075A000A000A000A000000800084F
:10015300E001F0001000100010001000100010006B
:1001630050005000500010001000D00700000000A5
:1001730000000F00010005003075070010000100AA
:1001830081FF0000FF01061F060706FF02020208A7
:10019300025000A0000000E803021B9001000011C0
:1001A30090021F900100003A0C022590010000B25A
:1001B30002021F900100003B0C022790010000C8BF
:1001C30002021F900100003C0C024190010000CA92
:1001D30002021F900100003D0C022B90080000CB8F
:1001E30002021F900100003E0C022D900100003F0F
:1001F3000CFF0100FF20021B900100000E90021F64
:1002030090010000A30C022F9000000000000223C5
:10021300900300001803310C310C310C310C310CFC
:10022300310C310C310C310C310C310C310C310CE3
:10023300010F190FFB0EFFFF02020202020202026C
:1002430002010D0000001001021B900100000B9041
:10025300021F90010000E60C023D900100007807A8
:10026300021F90010000E70C023B90010000398F50
:10027300021F90010000E80C0239900100002B8F4F
:10028300021F90010000E90C023590010000C98EA5
:10029300021F90010000EA0C024F90010000938EB0
:1002A300021F90010000EB0C023390010000DB8E73
:1002B300021F90010000EC0C023190010000A58E9A
:1002C300021F90010000ED0C0229900100001D8F18
:1002D300021F90010000EE0C023790010000EF0CAA
:1002E30001E803053F10FF0001307503020106001A
:1002F30000000000000000000000000000000000FB
:100303000000000000000000000000FFFF06008066
:100313000CE8030809466C6578626F7405121000D7
:100323002000020A000201060302E0FF466C657822
:10033300626F74211300002D13065243206368611A
:100343007200045458206368617200044368617248
:100353006163746572697374696320330010525862
:10036300206368617200024368617261637465723D
:100373006973746963203500021B900100001490B7
:10038300021F90010000E70D024590030000A30B3C
:10039300022190010000E80D021F90010000F00D02
:1003A300024790020000A90B022190010000F10D09
:1003B300021F90010000F90D024990020000BB0BDF
:1003C300022190010000FA0D021F900100000B0EA4
:1003D300024B90000000C60B022390030000DA0BCF
:1003E3000221900100000C0E021F90010000140E68
:1003F300024D90040000E00B022190010000150E55
:100403001201254788031201255E88031201258DF9
:100413008803120125C68803120125EE8803120101
:10042300251C89031201253389031201254A8903F7
:100433001201256089031201258789031201259A78
:100443008903120125B08903120125C3890312010F
:1004530025E8890312012533F40112012532F50140
:1004630012012567F50112012588F501120125986E
:10047300F501120125B9F501120125C5F601120195
:100483002592F70112012505F8011201258BF801C8
:10049300120125CEF80112012505F9011201258B60
:1004A300F9011201255DFA01120125BBFA011201BE
:1004B30025D3FA011201254DFB0112012550FB0141
:1004C30012012553FB01120125FAFB01120125122A
:1004D300FC0112012542FC0112012562FC011201FB
:1004E3002550FD0112012506FE0112012526D90220
:1004F3001201254ED9021201257CD902120125B31E
:10050300D9021201251BDA0212012564DA02120153
:1005130025AFDA02120125EDDA021201252ADB02E8
:1005230012012558DB02120125FFDB021201250906
:10053300DC0212012516DC0212012549DC0212013C
:10054300250BDD0212012517DD021201252FDD0225
:1005530012012539DD02120125688E031201257669
:100563008E031201258E8E03120125A68E0312011E
:1005730025A8AF0112012546B001120125BEB00125
:10058300120125D3B1011201250DB201120125B6C5
:10059300B2011201258BB301120125EFB40112013F
:1005A3002546B501120125CDB501120125B4B601C9
:1005B30012012501B7011201258FB701120125B3DD
:1005C300B70112012588B901120125C9B901120128
:1005D30025EBB9011201256CBA0112012556BB01A5
:1005E3001201251CBC01120125E7B602120125B92F
:1005F300B70212012562B802120125A5B802120141
:100603002532B902120125BEB9021201259FBA0291
:10061300120125CEBA02120125CABB02120125120C
:10062300BC0212012514BD0212012558BD0212019C
:10063300257EBD02120125859003120125C6EE0217
:10064300120125DCEE0212012502EF021201252A16
:10065300F00212012534F0021201258DF10212017C
:10066300258DF20212012535CA021201256ACB0239
:100673001201259DCB02120125E7CB02120125A50C
:10068300CD021201254BA001120125AEA0011201DA
:1006930025F3A10112012503A20112012526A201BE
:1006A30012012571A20112012516A3011201250CC5
:1006B300A401120125D6A4011201254EA60112019F
:1006C3002590A6011201252EA7011201257BA70162
:1006D300120125A1A7011201258FA9011201259459
:1006E300A90112012575AB01120125C9AB01120144
:1006F300252BAC0112012553AC01120125F7AC01E6
:10070300120125B9AD01120125EAAD01120125ED52
:10071300AD0112012535AE0112012577AE0112019B
:1007230025DEAE011201250080031201251380038B
:100733001201252C80031201257780031201255213
:100743008103120125E181031201252C8203120189
:10075300257021001201257C2100120125B52100FD
:10076300120125FA2100120125B1220012012537B9
:1007730023001201256323001201259C230012018B
:1007830025B025001201258C2700120125772900A9
:10079300120125AE2A001201250E2D00120125FAA1
:1007A3002D00120125402F001201254D30001201AA
:1007B300256A3000120125A23000120125BC300049
:1007C300120125243100120125BE35001201255FD7
:1007D3003600120125B03600120125D7360012016A
:1007E30025253700120125433700120125973700CD
:1007F3001201259F38001201252739001201255BBC
:10080300CF0212012565CF0212012530D002120159
:10081300254BD00212012571D002120125B5D00259
:10082300120125EDD00212012516D1021201258FE6
:10083300D102120125A4D102120125B9D10212015C
:1008430025F0D10212012504D20212012535D2026C
:100853001201256FD2021201259BD202120125D368
:10086300D20212012550D302120125A4D302120190
:1008730025EDD30212012517D4021201253CD4021F
:10088300120125DAEA02120125A4EB0212012587DF
:10089300EC02120125FDEC021201253FED021201CB
:1008A300256CEE0212012500800212012529800227
:1008B300120125428002120125878102120125655A
:1008C3008202120125848202120125118302120180
:1008D30025548302120125A18402120125408502B9
:1008E300120125BF87021201255688021201252A0B
:1008F30089021201250C8A02120125788B0212014A
:10090300250B8C02120125A47E001201250D7F0008
:10091300120125617F00120125887F0012012550F5
:10092300E202120125BDE20212012508E3021201CF
:1009330025FDE302120125F9E402120125E3E50294
:10094300120125269F02120125689F0212012542EA
:10095300A0021201251BA10212012516A2021201F7
:1009630025F5A20212012561A30212012528A40282
:1009730012012593A402120125FAA40212012525CE
:10098300A50212012596A50212012529A60212012C
:100993002592A602120125A7A602120125EFA6029F
:1009A30012012508A7021201256DA7021201257065
:1009B300A702120125B0F902120125D8F90212018A
:1009C3002516FA02120125D4FA021201253FFB0271
:1009D3001201255BFB0212012583FB02120125B3E1
:1009E300FB02120125C2FB021201253CFC0212018B
:1009F3002562FC02120125529001120125EF91019B
:100A0300120125D593011201259F9401120125E6B8
:100A130094011201252D95011201253F9501120123
:100A2300257F9501120125AE9501120125FA950145
:100A3300120125329601120125609601120125B19A
:100A430096011201254097011201252E9A011201E8
:100A530025089C01120125449C011201259E9D013C
:100A6300120125E59D011201255A9E01120125A8B7
:100A73009E01120125CE9E01120125B09F01120194
:100A830025239602120125409602120125DA9B02C4
:100A9300120125DC9C02120125569E021201250437
:100AA3009F021201256E4D00120125B74D00120160
:100AB30025E44D00120125174E00120125244E0096
:100AC300120125304E00120125424E001201251756
:100AD3004F00120125754F00120125AA4F00120184
:100AE30025465100120125935100120125B75100EB
:100AF300120125245200120125C952001201258535
:100B03005300120125045400120125C85400120198
:100B130025D75400120125585500120125F7550019
:100B2300120125295600120125C45600120125225F
:100B330057001201255C5700120125DD57001201F1
:100B430025A658001201254F5900120125D6590038
:100B53001201252E5A001201258F5A00120125B8C1
:100B63005A001201256E5B00120125B85C001201C8
:100B730025FB5C00120125185D00120125375D007D
:100B8300120125825D00120125A75D00120125D007
:100B93005D001201253F5E00120125815E001201F6
:100BA30025855F001201251F6000120125EB6000FF
:100BB300120125046100120125828C02120125D540
:100BC3008C02120125E18C02120125B68D0212015D
:100BD30025DD8D02120125188E02120125848E0255
:100BE300120125B88E02120125F18E021201250988
:100BF3008F02120125628F021201257B8F021201DF
:100C030025C48F02120125D78F02120125F18F020D
:100C130012012507900212012523910212012534A6
:100C23009202120125819302120125669402120198
:100C330025F97F001201254DE70112012581E70106
:100C4300120125ECEA0112012536EC0112012500FF
:100C5300ED011201258AEE0112012565EF01120152
:100C6300259FEF01120125C2EF0112012504F001B6
:100C73001201250DF00112012557F0011201256122
:100C8300F0011201250DF101120125E1F10112011B
:100C93002535F20112012597F201120125EAF2012D
:100CA30012012519F30112012558F301120125360A
:100CB3006100120125906900120125966900120155
:100CC30025516F0012012537730012012562F602C8
:100CD300120125D8F602120125EEF6021201252B88
:100CE300F70212012563F702120125E0F702120150
:100CF300251BF80212012596F802120125D2F802EB
:100D0300120125DBF802120125E7F8021201250181
:100D1300F90212012526F9021201253CF9021201FA
:100D23002580F90212012564D40212012577D40229
:100D330012012591D402120125BAD402120125FD14
:100D4300D4021201253CD5021201257AD5021201E3
:100D530025DFD502120125F4D502120125FFD502A4
:100D63001201250CD60212012523D60212012531C8
:100D7300D6021201253CD60212012548D6021201E1
:100D8300255BD60212012566D60212012589D602F9
:100D930012012532D70212012542D7021201255C26
:100DA300D70212012579D70212012595D702120124
:100DB30025BAD702120125C4D702120125D8D702BA
:100DC300120125F7D70212012558D8021201255E18
:100DD300D80212012564D8021201256AD802120131
:100DE3002576D802120125A9D802120125D4CC01F7
:100DF30012012556CD01120125FFCD011201254710
:100E0300CF0112012555D1011201253BD201120157
:100E13002570D20112012592D2011201253BD30183
:100E23001201250BD50112012534D501120125AC80
:100E3300D501120125DED501120125EBD5011201E1
:100E43002536D6011201255AD601120125ABD80148
:100E5300120125B5D90112012511DA01120125511B
:100E6300BE0112012562BF0112012546C001120114
:100E73002550C00112012572C0011201257EC00157
:100E830012012522C2011201254FC201120125655B
:100E9300C301120125BAC30112012509C5011201BB
:100EA30025DEC5011201253AC601120125A5C60199
:100EB300120125DAC6011201251DC701120125E71A
:100EC300C901120125FFC90112012590CA011201AE
:100ED300259ECA01120125EBCA01120125F9CA0197
:100EE30012012565CB01120125E0CB011201253743
:100EF300CC01120125867300120125A8730012018B
:100F030025B97500120125787800120125A2790010
:100F1300120125607A001201254C7B001201258EF7
:100F23008603120125B386031201252987031201C3
:100F330025CAAF02120125D3AF02120125DCAF028D
:100F4300120125B4B00212012565B20212012595E2
:100F5300B202120125C0B202120125F0B20212013F
:100F6300251BB3021201254FB3021201257BB302E5
:100F7300120125BEB302120125E9B3021201253085
:100F8300B40212012585B402120125C7B40212016D
:100F93002521B5021201254CB5021201259BB5028C
:100FA300120125CBB502120125F6B5021201252443
:100FB300B60212012547B6021201250E9103120152
:100FC300253A9103120125679103120125719103BB
:100FD300120125819103120125B3C402120125BD1B
:100FE300C402120125FEC40212012547C5021201E3
:100FF3002581C502120125D7C502120125F8C502B4
:1010030012012501C60212012555C6021201257ED1
:10101300C60212012588C602120125F6C602120174
:101023002586C702120125E1C7021201250FC80256
:1010330012012597C802120125D6C8021201250BF9
:10104300C9021201251DC9021201253CC902120160
:101053002545C90212012507CA02120125948C03F2
:101063001201259D8403120125D384031201250750
:1010730085031201255486031201258EFF021201F6
:1010830025A4FF02120125AEFF021201258B910355
:10109300120125A5E602120125B8E6021201257CFC
:1010A300E702120125BBE702120125D8E70212016C
:1010B3002511E8021201255EE80212012590E802DB
:1010C300120125C7E8021201258B8D03120125AEFB
:1010D3008D03120125DD8D031201251F8E031201DD
:1010E30025AAFC02120125CFFC02120125F9FC02FC
:1010F300120125EA91031201258E39001201256C94
:101103003B001201250B3D00120125B63D001201E3
:1011130025363E00120125BB3E00120125E43E00A8
:10112300120125BF42001201253643001201254D4D
:101133004400120125874400120125C8440012010E
:10114300250F4600120125654600120125AE460013
:101153001201251D4700120125894700120125BAF6
:101163004700120125D24700120125EB4800120166
:1011730025FB4800120125B14A00120125C84A0087
:10118300120125FA4A001201259C4C001201253058
:101193004D001201253F8F03120125508F031201C9
:1011A30025939203120125D29203120125E67F00B3
:1011B300120125F08F03120125009003120125155A
:1011C30090031201257B9003120125928B031201D8
:1011D30025178C031201257B8C0312012571FE0157
:1011E3001201259AFE0112012505FF011201255660
:1011F300FF01120125B1FF01120125EBFF011201CD
:101203002597F20212012527F302120125B0F302FA
:101213001201254CF402120125DDF4021201258D81
:10122300F5021201259BF50212012519F60212019E
:10123300252CF60212012542F6021201254CF60274
:101243001201255FF602120125FA89031201254CCA
:101253008A03120125BF8A031201252C8B03120175
:10126300255682031201258082031201254F830331
:101273001201252B840312012594A7021201256074
:10128300A802120125A1A802120125DBA80212015E
:101293002539A9021201258DA902120125EBA90204
:1012A30012012581AA0212012589AB02120125131D
:1012B300AD02120125B1AD0212012518AE021201D1
:1012C300252BAE021201251FAF0212012568AF02C2
:1012D3001201255EDA0112012590DD01120125219B
:1012E300DF0112012578DF0112012595DF011201CB
:1012F3002515E00112012591E10112012560E201AA
:10130300120125CDE501120125B7E601120125F3EE
:10131300BD021201259DBE0212012592C1021201D6
:101323002516C202120125C4C2021201253AC402C3
:10133300120125CEDD0212012513DE021201253032
:10134300DE021201257EDF02120125EADF0212010D
:1013530025D6E00212012517E202120125B97F000A
:10136300120125DC9203E066701008A3E066700AA0
:1013730008A3E066700408A3E06622C3E7960809A1
:10138300E7960809E7960809E79622C3E09608A3BB
:10139300E09608A3E09608A3E09622C008C3E0966F
:1013A300F50808A3E096420808A3E096420808A3BC
:1013B300E09645087001D3D00822080808EAC0E087
:1013C300EBC0E086F0E7A4FA180986F0E7A42AFA4E
:1013D300180986F0E7A42AFA180986F0E7A42AFA7E
:1013E3001986F0E7A4FBE5F02AFA190886F0E7A4CA
:1013F3002BFBE5F03AFA190886F0E7A42BFBE5F09E
:101403003AFA18180986F0E7A4C5F02BFBE43AFA78
:101413001908E7C5F0C6A426F6E5F03BFBE43AFA63
:101423001886F0E7A4F6E5F00826F6E43B08F6E4B0
:101433003A08F6D0E0FBD0E0FA226016080808C6A6
:10144300C313C618C613C618C613C618C613C6D503
:10145300E0EA227009080808226016181818C6C3A3
:1014630033C608C633C608C633C608C633C6D5E076
:10147300EA22E627F60809E637F60809E637F6080A
:1014830009E637F622E026F608A3E036F608A3E0DD
:1014930036F608A3E036F622E026F008A3E036F09D
:1014A30008A3E036F008A3E036F022C3E697F60877
:1014B30009E697F60809E697F60809E697F622C3C0
:1014C300E096F008A3E096F008A3E096F008A3E006
:1014D30096F022E056F608A3E056F608A3E056F687
:1014E30008A3E056F622E056F008A3E056F008A35E
:1014F300E056F008A3E056F022E0F608A3E0F60871
:10150300A3E0F608A3E0F622E6F008A3E6F008A3BA
:10151300E6F008A3E6F022E0FAA3E0FBA3E0FCA3D5
:10152300E0FD22EAF0A3EBF0A3ECF0A3EDF022CA76
:10153300C0E0E6F0A308DAFAD0E0FA22CAC0E0E09D
:10154300A3C582CCC582C583CDC583F0A3C582CC98
:10155300C582C583CDC583DAE6D0E0CA22C3E49849
:10156300F8E499F91215A18026C3E49AFAE49BFBE7
:10157300E920E7E91215A1E498F8E499F922C3E414
:1015830098F8E499F91215A1E498F8E499F9C3E4F9
:101593009AFAE49BFB22EB20E7CFE920E7E0B900CE
:1015A30010BB0008E88AF084F8AAF022E4FBC8FA2A
:1015B30022EB70227B10C833C8C933C9335007C329
:1015C3009AC3DBF280069A50012ADBEAC833F4C8D7
:1015D300C933F4C9FA2275F008E4C833C8C933C95A
:1015E30033C99AC99B5004C92AC93BD5F0ECFBC83F
:1015F30033F4C8E4C9FA22600D08C6A2E713C6187B
:10160300C613C6D5E0F322600C08C6C313C618C6BA
:1016130013C6D5E0F422700422600D18C6C333C686
:1016230008C633C6D5E0F41822251810AF08F518FC
:10163300400215198008F51840021519D2AF22C0CF
:10164300D0251810AF08F518500205198008F518B1
:1016530050020519D2AFD0D0222518F58210AF0859
:10166300F518400215198008F51840021519D2AF74
:10167300851983222518F582E43519F58322E4734D
:101683002518C582C0E0E51934FFC583C0E0E5181D
:10169300C3958224F810AF088583198582188008C2
:1016A300858319858218D2AFCEF0A3E520F0A37805
:1016B30008E608F0A3DEFAEFF0A3E58124FAF8E6E2
:1016C30008F0A3E608F0A3E608F0A30808E608F08C
:1016D300A3E608F0A315811581D0E0FED0E0F8154C
:1016E3008115811581E8C0E0EEC0E0222518C5828E
:1016F300C0E0E51934FFC583C0E0E518C395822433
:10170300F910AF08858319858218800885831985A8
:101713008218D2AFCEF0A3E520F0A37808E608F054
:10172300A3DEFAEFF0A3E58124FBF8E608F0A3E6D5
:1017330008F0A30808E608F0A3E608F0A31581154E
:1017430081D0E0FED0E0F815811581E8C0E0EEC05D
:10175300E022851983851882E0A3FEE0A3F52078B3
:1017630008E0A3F608DFFAE0A3FFE0A3C0E0E0A3EC
:10177300C0E0E0A3C0E0E0A3C0E0E0A3C0E010AF9E
:10178300088582188583198008858218858319D274
:10179300AFD083D082020122851983851882E0A30A
:1017A300FEE0A3F5207808E0A3F608DFFAE0A3FF44
:1017B300E0A3C0E0E0A3C0E0E0A3C0E0E0A3C0E09A
:1017C30010AF088582188583198008858218858360
:1017D30019D2AFD083D08222C0D02518C582C0E0F1
:1017E300E51934FFC583C0E0E518C3958224F310DF
:1017F300AF08858319858218800885831985821827
:10180300D2AFC8F0A3E9F0A3EAF0A3EBF0A3790801
:10181300E709F0A3D8FAECF0A3EDF0A3EEF0A3EF01
:10182300F0A3D0E0F0A3D0E0F0A3D0E0F0A3E52054
:10183300F0A3E5F0F0A322851983851882E0C0E0C8
:10184300A3E0F9A3E0FAA3E0FBA37808E0F608A37A
:10185300DFFAE0FCA3E0FDA3E0FEA3E0FFA3E0C00A
:10186300E0A3E0C0E0A3E0F5D0A3E0F520A3E0A36C
:10187300F5F010AF088583198582188008858319D0
:10188300858218D2AFD082D083D0E0F8D0E0327412
:10189300048006740280027401C0E0F40412165C32
:1018A300D0E0121532227404800474028000CCC08C
:1018B300E0EDC0E0E518C39CCCAD1950011D10AF9D
:1018C300068C188D1980068C188D19D2AF12153F0E
:1018D300D0E0FDD0E0FC22D083D082E9C0E0E493E5
:1018E300A3C386F0C5F095F0F908E493A386F0C589
:1018F300F095F0700BE493A3C3994005E9048002CB
:10190300A3E475F002A42582F582E5F03583F5831F
:10191300D0E0F9E493A3C0E0E493C0E022D083D005
:1019230082ECC0E0EDC0E0E493A3FCE493A3FDEDFF
:101933004C600D12196CEC24FFFCED34FFFD80EFBD
:10194300E493A3FCE493A3FDED4C600D1219ABECFF
:1019530024FFFCED34FFFD80EFD0E0FDD0E0FCE49C
:1019630093A3C0E0E493C0E022C0E0C3E4939608ED
:101973007401939618400FE49366700808740193FA
:10198300661870007019A3A3C3E4939608740193B7
:101993009618A3A3400DD0E0D0E0D0E002195CA3D9
:1019A300A3A3A3A3A3D0E022C0E0C0F088F0E493F4
:1019B3006670080874019366187000A8F0A3A370FA
:1019C3000BD0F0D0E0D0E0D0E002195CA3A3D0F0BC
:0319D300D0E0223F
:1019D80074F51216EFEAFEEBFFEE2434F8EF34004C
:1019E800F988088909EE2435121B10F8EE243712FD
:1019F8001B10F50AEC850AF0A4FCAAF0850AF0EDA4
:101A0800A42AFDE82CF8E43DF97A257B001215A1FB
:101A1800EA850882850983F05407F87401B8000242
:101A28008004C333D8FCC0E0E0131313541FF8EE4E
:101A380028F8EF3400F9E8245DF582E93400F583ED
:101A4800D0E0F8E0586008850882850983801DEE9B
:101A58002436121B10F5F0EA84A8F0EE28F8EF34CB
:101A680000F9E82438F582E93400F583E0F97F04C9
:101A780002179B74F51216EFEAFEEBFFEE24341200
:101A88001B10C0E0EE2435F582EF3400F583D0E07A
:101A9800F08E828F83A3A3A3A3A3E0FAA3E0FB8E17
:101AA800828F83A3A3A3A3A3A3A3E0FCA3E0FDECDD
:101AB800C39AF50AED9BF50BEE2480F508EF340088
:101AC800F509850882F583E06401702BEE2481F521
:101AD80082EF3400F5831218AD121B197402121626
:101AE80042E960137CFD7D04EEFAEFFB120B5F8583
:101AF8000882850983E4F0AC0AAD0BEEFAEFFB121D
:101B080019D812206C021A76F582EF3400F583E0BA
:101B180022C082C083851882851983E0F8A3E0F982
:101B2800C3EA9CEB9D5012C3EC98ED994019C3EAA7
:101B380098EB99501279018010C3EA98EB9940F517
:101B4800C3EC98ED9950EE7900D083D08222EAC395
:101B58009CFAEB9DFB2200008521878522C622C0C6
:101B6800E074EF1217DB759B00906182E0A2E640FB
:101B780003021C28E591A2E64003021C287591BFC8
:101B88009003C2E064057008120CFD120D09800371
:101B9800120D03752100120D6FE99003C3F079004F
:101BA800120D63120AC97A017B009003C1E0F91291
:101BB8001033907803E064426003021C7190055F63
:101BC800E014F06003021C71C2AF121BD500782A22
:101BD800D0E0F618D0E0F6E59F5407F97005908F2D
:101BE800AF8003908FAB78081214FCE9C4C0E0788A
:101BF80029E65508F50808E65509F509740B78082B
:101C080012160AD0E02508F8906270E0A2E740F8C2
:101C1800E8C333906272F0906270E0D2E0F08049DD
:101C2800E0A2E55024E591A2E5501E7591DF9003EE
:101C3800C2E0640D70139003E4E004F064287002BD
:101C4800E4F07A00E0F9120DE1906181E0A2E3503E
:101C580009E5E9A2E3500375E9F7A3E0A2E7500913
:101C6800E591A2E7500375917F7F0402183AC0E01E
:101C7800C0D0C082C083906183E0A2E05009E5BF74
:101C8800A2E0500375BFFEE0A2E15009E5BFA2E162
:101C9800500375BFFDE0A2E25009E5BFA2E2500380
:101CA80075BFFBE0A2E35009E5BFA2E3500375BF8F
:101CB800F7E0A2E45009E5BFA2E4500375BFEFE0E6
:101CC800A2E55009E5BFA2E5500375BFDFE0A2E633
:101CD8005009E5BFA2E6500375BFBFD083D082D0BC
:101CE800D0D0E032C0E074F21217DBE5A7A2E450CE
:101CF8000FE5A1A2E4500953A7EF75A1EF121D400B
:101D0800E5A7A2E5500CE5A1A2E5500653A7DF75AB
:101D1800A1DFE5A7A2E15009E5A1A2E1500375A161
:101D2800FDE5A7A2E2500CE5A1A2E2500653A7FBED
:101D380075A1FB7F0102183A74F81216EF7521019C
:101D48009003C2E0640670077A007B00120CE5A2DB
:101D5800AFE433FED2AF9003C8E0640170187A2074
:101D68007B009003C1E0F91210B77A207B00900342
:101D7800C1E0F9121039906182E0D2E6F090055E78
:101D8800E0602185C62280169003C7E064017008D0
:101D9800E5C654F84405F5C653BEFC121B60740131
:101DA800652160E4EEA2E092AF7F0102179B00007C
:101DB8008E238F2485822885832785188285198319
:101DC800E0CEA3E0CF852882852783EBC9EAC8ED5A
:101DD800CBECCA75F010C3E833C8E933C9EA33CA93
:101DE800EB33CBC3EA9EF526EB9FF525B35004AB46
:101DF80025AA26EC33CCED33CDD5F0DAAE23AF24CB
:101E08002274F11216EF8A088B098C0A8D0B740F55
:101E1800121677780C1214FC908FFF78081214D6DB
:101E2800908FFF780C1214D67808790C12137E5014
:101E3800157808790C1214AE908F97780812139EB3
:101E4800401579018013780C79081214AE908F9799
:101E5800780C12139E40EB79007F0802179B74EDF3
:101E68001216EF8A088B098C0A8D0B7413121677D9
:101E7800780C1214FC908FFF78081214D6908FFFFC
:101E8800780C1214D6780C790812137E4011780851
:101E9800790C1214AEAA08AB09AC0AAD0B802275F6
:101EA80010007511007512007513017810790C1265
:101EB80014AE78107908121475AA10AB11AC12ADD3
:101EC800137F0C02179B908FFF78081214FC8A82EC
:101ED8008B8378081214E97F0402179B74F5121695
:101EE800EF8C828D8378081214FC8A828B837808A1
:101EF8001214C2121F38C3E098F0A3E099121F2AE7
:101F0800401E908FE378081214FC8A828B8378082D
:101F180012149B8E828F83E02420F0A3E0344EF0CD
:101F280080A4F08E828F83C3E09420A3E0944E2295
:101F3800EA2404F8EB3400F9E8FEE9FF8C828D838B
:101F4800A3A3A3A3E0F8A3E0F98E828F832274F5FC
:101F58001216EFE9FE900514E0FAA3E0FBEEC33396
:101F6800F8E433F9740D28F582748F39F583E02A83
:101F7800F508A3E03BF5097808121896908FE71248
:101F8800151A121DB874021216428A088B098C0A97
:101F98008D0B7410780812143DAA08AB097F04024F
:101FA800179B74F11216EF8A0C8B0D8C0E8D0F7423
:101FB8000F121677E0FAA3E0FB7411121677E0F51A
:101FC80008A3E0F5097413121677E0FEA3E0FF7882
:101FD80008121896EA2401F508EB3400F509E4F52F
:101FE8000AF50B780C79081213BD908FA3780812A4
:101FF80014FC780C79081213BDAA0CAB0DAC0EAD0D
:102008000F121DB874021216428B09EA45096004C2
:102018007A0180027A00EC2AFCED3400FDECF8ED40
:10202800F97A717B021215A188088909E4F50AF585
:102038000B8E828F83780812150BECF8EDF97A7104
:102048007B021215A18A088B0974057808121619E3
:102058008E828F83A3A3A3A3E508F0A3E509F07FED
:102068000802179BC082C083E9906000F0D083D03B
:102078008222C0E074F21217DBA2AFE433FED2AFC3
:10208800C2C0E5D1A2E4500653D1EF121243EEA22A
:10209800E092AF7F0102183AC0E074F21217DBA297
:1020A800AFE433FED2AFE589A2E150031211F57512
:1020B8008900C2C5EEA2E092AF7F0102183AC0E0E3
:1020C80074F21217DBA2AFE433FED2AFE58BA2E0C5
:1020D80050031211F5758B00C2E880D8C0E0C0D05B
:1020E800E8C0E0E5A8D2AFC2C7A2E792AFD0E0F857
:1020F800D0D0D0E032C0E0C0D0E8C0E0E9C0E0C055
:1021080008C009C082C083A2AFE433F9D2AF9009F6
:10211800DEE0F8A3E0687008539AFBA374018026F8
:10212800C2E99009DEE0F50874012508F0745E251F
:1021380008F58274093400F583E0F5C19009DEE002
:10214800C394804002E4F0E9A2E092AFD083D08249
:0F215800D009D008D0E0F9D0E0F8D0D0D0E032F4
:10216800FFFFFFFFFFFFFFFFC082C083E9900CA2C3
:10217800F002238F74F7121683E99002E0F07C18BE
:102188007D037AFF7BFF1207DB9002E174FFF0A367
:10219800F0A3E4F0A3F079051207699002E0E0F9F2
:1021A8001206917AF37B071209BB02309D74F41270
:1021B80016838A088B09EB548060309002E0E0F9BE
:1021C80012101B8A0A8B0BAE0AAF0BEE4F60138EF0
:1021D800828F83E064B0700312077BEEFAEFFB1284
:1021E8001009AA08E5096480FB80047A007B0002D4
:1021F800235E74F212168374FC12162CEAFEEBFFAF
:102208007412121677123584EE4F700302229D74F1
:1022180002121677EEF0A3EF122599ECF0A3ED1257
:102228002599AA82AB8312068BE9F50A706AE5083C
:10223800450960648E828F8312356AEE4F60567A44
:10224800067B0012106F8A0C8B0DA80CA90DE849AB
:102258007005750A13804188828983E41222AAEEE8
:10226800F0A3EF123595E508F0A3E509F09002E632
:102278001223319002E67005123047801B12303568
:102288008003EAFCEBFD8C828D8312233170F38C82
:10229800828D8380E3750A02A90A74041216420229
:1022A8003784F0A312353BA32274F2121683890AED
:1022B800E975F017A4FEAFF09002E5E4F09002E3B0
:1022C800122331600A1210759002E3E4F0A3F0EED5
:1022D800FAEFFB12106F8A088B09EA4509602FEEA6
:1022E800FCEFFD7900120FF79002E3E508F0A3E593
:1022F80009F07B00800812231BE4F0A3F00BEBC36A
:10230800950A40F2E50A9002E5F079008002791317
:10231800023784EB75F017A4F8A9F09002E3E028DF
:10232800FAA3E0398A82F58322122CD9EA4B227467
:10233800F41216837900EAA2E0501B75088075092B
:102348008F78081218967C047D007AA47B0C1207FB
:102358006374021216427F04021755C082C083902C
:1023680002E6122396601C88828983A3A3E06A7020
:1023780003A3E06B8882898370E8A3A3A3A3122C2C
:10238800D580047A007B00D083D0820201221238E3
:102398006AE8492274EE12168374FC12162CEAFEBF
:1023A800EBFF851882851983E4F0A3F0EE2402126E
:1023B8003027EE2405123542EE2404F50EEF1229DB
:1023C8004EE024FE603924FC604624FE605224FE60
:1023D800605E24FE70030224AF24FE7003022513FE
:1023E80024FE700302252224FE700302253124FCFA
:1023F800700302254024FE700302254F02258C90AD
:1024080002FF7417F0A3E41225A112040902258C17
:10241800851882851983AC82AD8312078102255CF9
:10242800851882851983AC82AD8312078702255CE3
:10243800850C08850D097402121677AC82AD838568
:102448000882850983122CD51206AF8A0C8B0DAC35
:102458000CAD0DEC4D603BE4F50CF50D780C121845
:1024680096750CFF750D02780C121896750C007590
:102478000D03780C12189674081216771218AD12FC
:10248800388E121642E9F50C700B122CCB1204216F
:10249800800F750C0185088285098312258F1230FB
:1024A80047850C0802255F7402121677AC82AD834B
:1024B800850C82850D83122AA0603C850C82850DCF
:1024C80083A3A31218AD7510FF75110278101218A6
:1024D8009675100075110378101218967408121664
:1024E800771218AD12388E121642E9F509700B12E0
:1024F8002CCB120427800F750901850C82850D836A
:1025080012258F123047850908804C851882851955
:1025180083AC82AD8312078D803A85188285198332
:10252800AC82AD83120793802B851882851983AC02
:1025380082AD83120799801C851882851983AC8225
:10254800AD8312079F800D851882851983AC82ADF3
:10255800831207A5E9F508E50860298E828F83A311
:10256800E06414601F850E82850F83E09002FF12DD
:102578002599123866900300123047E508A3122502
:10258800A1120403022F3612386A8518828519832E
:1025980022F085188285198322F07CFF7D02850A46
:1025A80082850B83122CD92274EE12168374FC12C6
:1025B800162C8A0A8B0B8C0E8D0FEA2405F508EB76
:1025C8003400F5097C157D0079007AFF7B02120F33
:1025D800F7E5082402F50CE50912354585188285CA
:1025E80019838582108583117810121896850882C0
:1025F800850983A3A3A3A3122A97121896E5082492
:1026080005F510E5093400F5117810121896850CB7
:1026180082850D83122DEC1206A974061216428AC1
:10262800108B11AE10AF11E50A2402F50AE50B1262
:10263800302AEE4F700302276E8017740212167745
:10264800122CD588828983EAF0A3EBF09002FFE090
:1026580004F09002FFE0C39405400302276EE4F5FE
:1026680010F51178101218967510E8751102781087
:102678001218967510E975110278101218967406DA
:102688001216771218AD7910EEFCEFFD1238901281
:102698001642E9705E850882850983A3A3A3A3A3D4
:1026A800A3A3E0F89002E8E0687048122A9712188D
:1026B800967CE97D02E5082408FAE5093400FB1256
:1026C8000FF17402121642E960298E828F83A3A348
:1026D800A3A3122CD59002FFE0F510740278101213
:1026E800161974002510F58274033511F583EAF084
:1026F800A3EBF07402121677858210858311781087
:1027080012189674021216771218AD850C82850D70
:1027180083122CFB1216428A108B11AE10AF119047
:1027280002FFE0F510751100740278101216197482
:10273800FF2510F874023511F988828983A31223C2
:1027480031700302263AE82403080808E93400F93E
:10275800EE4F60030226438882898374FFF0A3F05A
:102768009002FFE004F09002FFE0600A122CCB1206
:1027780004157900800B85088285098312303E791B
:102788000A022F3674EA12168374FE12162C8C1263
:102798008D13EA2405F50CEB12387812356E75089E
:1027A80000750900EA2402F510EB3400F5118518CC
:1027B8008285198385820A85830B780A1218968583
:1027C8000C82850D83A3A3A3A3122964121896E58E
:1027D8000C2405F50AE50D12302A780A1218968598
:1027E8000C82850D831229681206A97406121642F6
:1027F8008A0A8B0BEA450B7003022909EA2404F5BF
:102808000EEB12294E12356E8A828B83A3A3A3E0A6
:10281800F9851082851183122CDF6003022909E4EF
:10282800F514F51578141218967514E875150278CC
:10283800141218967514E9751502781412189674FE
:10284800061216771218AD7913AC0AAD0B851082F3
:10285800851183123896121642E9F5096003022998
:10286800099002E8E0F8E5087009E0240290030006
:10287800F08014900300E0FCE82402FAE43400FB42
:10288800EA6C7001EB707E850882AA82122A8E9407
:1028980014122A86506B850E82850F83E0C0E0747F
:1028A800012A122945D0E0F00508850E82850F839C
:1028B800A3E0C0E085080A7401250A122945D0E082
:1028C800F005089002E81229641218967CE97D0246
:1028D80085080A7401250A1229581216429002E83E
:1028E800E02508F50874FF6E700374FF6F6012EE40
:1028F80024010EEF3400FFE508C3941450030227A7
:10290800B6E5086013122CE9851082851183122C14
:10291800D512041B79008014E509700375090A852E
:102928001282851383EEF0A3EFF0A9097402121640
:10293800427F0E02175585080C7401250CF5827428
:10294800033400F583223400F50F850E82F58322C7
:10295800FA74033400FB120FDF7402221235A4222A
:10296800A3A312296E22123035FDEEFAEFFB227472
:10297800EE12168374FE12162C8C0E8D0FEA2405A7
:10298800F50CEB123545750B009002FFE4F0F50AE3
:10299800EA2402F508EB3400F50980449002FFE0D0
:1029A800FA9002E8E0F8122A8E9417122A86400D4F
:1029B8009002FFE0F87416C3989002E8F0122A9784
:1029C8001218967CE97D0274002AFA740312295BB6
:1029D8001216429002E8E0F89002FFE028F0050A9B
:1029E800E50C2416F582E50D122949E0F8E50AC33D
:1029F8009850749002FFE0C39416506BE50AC333F5
:102A0800F8E433F9E50C28FEE50D39FF85188285D1
:102A18001983AC82AD838E828F83122AA0700875C9
:102A28000B0112303A8050E4F510F51178101218A5
:102A3800967510E875110278101218967510E975D8
:102A48001102781012189674061216771218AD79BA
:102A580016850882850983123896121642E9F50B05
:102A680070030229A480BB7CFF7D0285088285094A
:102A780083122CD512042DA90B7402022F38E99465
:102A880000C365D03322EA28F8E43400F9E822E0EC
:102A9800F510751100781022122F2D8A108B11ACA9
:102AA80010AD11EC4D2274EA12168374FC12162C28
:102AB8008A0C8B0D8C128D13EA2405F50AEB123063
:102AC8002A750800750900E50A2402F510E50B349B
:102AD80000F511740212167785820E85830F780E21
:102AE800121896850A82850B83A3A3A3A312354ADD
:102AF800121896E50A2405F50EE50B3400F50F7853
:102B08000E121896851082851183123030122CCF40
:102B18001206A974061216428A0E8B0FAE0EAF0F5C
:102B2800E50C2402F50EE50D3400F50F8038888297
:102B3800898374FFF0050812293E74FFF005089098
:102B480002E8E0F50C750D00780C1218967CE97D0A
:102B58000285080C7401250C12295812164290029D
:102B6800E8E02508F508EE4F60278E828F83A3A33F
:102B7800A3E0F9850E82850F83122CDFEE24041260
:102B88003542E96027850C82850D83122CC11230ED
:102B980047E5087003022CA7122CE9850E82850FE1
:102BA80083122CD51204337900022CBCE4F514F5F9
:102BB8001578141218967514E875150278141218F9
:102BC800967514E975150278141218967408121679
:102BD800771218AD7911EEFCEFFD850E82850F8313
:102BE800123896121642E9F509709A850882AA8267
:102BF800EA9002E87009E02404900300F08025E0E0
:102C0800F8900300E0F514E82404FCE43400FDEC3B
:102C180065147001ED7081122A8E9412122A864072
:102C280003022BA0850C82850D83E0C0E074012A85
:102C3800122945D0E0F00508850C82850D83A3E0B4
:102C4800C0E012293ED0E0122D0485820C85830D48
:102C5800780C12189674041216771218AD85108223
:102C6800851183122CFB1216428A0C8B0DAE0CAF09
:102C78000D85080C7401250CF874033400F9EE4F27
:102C88007003022B36851882851983E08882898330
:102C9800122D04A3E0C0E012293ED0E0022B44E547
:102CA80009700375090A850A82850B83122CC112E3
:102CB8003047A909740402293612386A85128285B8
:102CC8001383227CFF7D02850A82850B83122CD90F
:102CD80022E0FAA3E0FB22122CD9120697E9F509A3
:102CE80022900300E0F5F0E508849002FFF07CFFF5
:102CF8007D022212296E1206B5740422F005088599
:102D080018828519832274EC12168374FE12162C0D
:102D18008A088B098C0E8D0FEA2405FEEB3400FF20
:102D2800122F17EE2418123542EA450B7003022DB4
:102D3800BA122F005029122DDF8A108B11EA451183
:102D4800606B7912AC0AAD0B850882850983122C59
:102D5800D5851082851183121681E9F50A7058E429
:102D6800F50AF50B780A1218968E828F83A3A3E0D2
:102D7800F50A780A121896EE2403123027780A12F8
:102D880018968E828F83122DEC1207C974061216BC
:102D980042E9F50A7021850C82850D83E0701F8554
:102DA8000882850983122CD51204398011750A0E00
:102DB8008009750A018004E50A600312303A850C1F
:102DC80082850D83E0600479008002A90A740212EA
:102DD80016427F0C021755851882851983122CD943
:102DE8001207B722123035FD850882850983122C17
:102DF800D92274EE12168374FE12162C8A088B09D7
:102E08008C0C8D0DEA2405FEEB3400FF750E0012C4
:102E18002F17EA450B7003022EDE122F00502C12DA
:102E28002DDF8A0E8B0FEA450F604A7912AC0AAD86
:102E38000B850882850983122CD5850E82850F8320
:102E4800121681E9F50E6003022EE18508828509D4
:102E58008312311CAA0AFB122EF270147AFF7BFF30
:102E6800122EF2606C88828983E50AF0A3E50BF0E4
:102E7800750A008007750E0E805F050A9002E5E06E
:102E8800FAE50AC39A504AE50A75F017A4FAABF0B6
:102E980088828983A3A3E02AFAA3E03BFB8A828B7A
:102EA80083123030EC4D70D2750A17750B00780A12
:102EB800121896EEFCEFFD120FDF7402121642EEA6
:102EC800FCEFFD850882850983122CD512043F800A
:102ED80014750E098003750E01123862850C8285FF
:102EE8000D83123047A90E022A811207AB8A108B74
:102EF80011A810A911E84922E5082402F508E509F6
:102F08003400F5098A828B83A3A3A3E0A2E5228576
:102F18001882851983AC82AD838E828F83122F2D00
:102F28008A0A8B0B22E0FAA3E0FB1206AF22740494
:102F38001216427F0A02175574EC1216838C108DF4
:102F480011EA2405F50CEB123545750F00EA240249
:102F5800F50AEB12302A850A82F583122CD512392C
:102F68001C700302301C750E008071850C82850D63
:102F780083E06401704F8E828F83A3A31218AD8EF5
:102F8800828F83A3A3A3A3E0F5127513007812120E
:102F98001896EE2405F512EF3400F513781212187E
:102FA80096122CCF1207C97406121642E9F50F6063
:102FB80014850C82850D83E4F012386285108285B1
:102FC80011831230477C177D007900EEFAEFFB126F
:102FD8000FF78E828F83E4F0A3F0050E9002E5E0F0
:102FE800F8E50EC398501EE50E75F017A4F8A9F081
:102FF800850882850983A3A3123882123030EC4DEC
:103008006003022F7385088285098374FFF0A3F09B
:10301800E50F7006122CCF120445A90F022DDAF520
:103028000AEF3400F50B22A3123035FD22E0FCA391
:10303800E0228E828F8312386A850E82850F83E89C
:10304800F0A3E9F022C082C0839002E1E06A700335
:10305800A3E06B70067AE17B0280047A007B0002B1
:10306800238F74F71216837F00EF75F003A4F8A975
:10307800F0EC28F8ED39F988828983E06A7003A3B7
:10308800E06B7006E8FAE9FB800B0FEFC39402408F
:10309800D87A007B007F0102175574F61216831246
:1030A800365370067A007B008007A3A3A3A3122CD3
:1030B800D502371474F2121683E9FE740E121677CD
:1030C80012311C74101216771235848C828D83E0AD
:1030D8006402703BA312386688828983E0F50CA3EA
:1030E800E0F9A80C74026870037429697021750CE2
:1030F80002750D00780C1218967808121896780A3E
:10310800121896EEF91207ED74061216428002792B
:1031180001023784E0F50AA3E0F50B2274E81216E1
:103128008374FB12162CE9851882851983F08A1698
:103138008B178C0E8D0F741F12167712358474211D
:1031480012167712311C742312167712356E751009
:10315800008C828D83A3A3A3E0A2E4502A741D12DD
:103168001677122DE58A828B83E5824583700302E8
:103178003230790AAC0EAD0FAA16AB17121681E9D8
:10318800F5106003023233850E82850F83E06402F6
:1031980060030234E9A3123866850882850983A38F
:1031A800858212858313E50E2406F50CE50F12358A
:1031B8004588828983E0FAA3E0F9EA2400F514E45B
:1031C80039F5157814121920010000280128F83162
:1031D80007000228CF3203283F320029F93301299A
:1031E80021340229C8330329F93304298A34E934FC
:1031F800EE4F703E850C82850D8312355FFAE9FB30
:103208008A828B83E0850A82850B8312359B12188C
:10321800968A828B83A3123035FDAA08AB09120F58
:10322800DF7402121642800375100EA9107405028D
:10323800387075100B80F4EE4F70F7850A82850B95
:10324800837401F0123574850882850983F07C0047
:103258007D00850E82850F83A3A3A3A3E02401FA32
:10326800A3E03400FB1206AFEA4B60418A828B83ED
:10327800E02402F8850A82850B83E028F0EA24041A
:10328800F8EB3400F988828983E0851282851383FC
:103298001235AD12359B1218968A828B8312302F05
:1032A800E5082403FAE5093400FB023226850A8280
:1032B800850B83E02404F07C047D007900AA12AB1E
:1032C80013120FF7023233EE4F600302323A12350F
:1032D80074FEA3E0FF850A82850B837404F0EE85F3
:1032E8000882850983F0EF851282851383F07403C1
:1032F800121677AC82AD83EEFAEFFB1236417003FB
:103308000233A58A828B83A3A312356A740112162D
:103318007785820E85830F780E121896740512161B
:10332800771218AD7CFF7DFF1206B57404121642A1
:103338008B0FEA450F7033850C82850D8312354A51
:10334800121896850C82850D83A31218AD7C027D18
:10335800007A1D7B901204E17404121642E9700A87
:10336800740112167774FFF0A3F08E828F83E064E5
:10337800027034750C02750D00780C1218968E8246
:103388008F8312302FE5082404FAE50912295B120D
:103398001642850A82850B83E02402800974011293
:1033A8001677EEF0A3EFF0740112167712355BF082
:1033B8007401121677A3123553A3A3A3F002323374
:1033C800EE4F600302323A850C82850D831230304D
:1033D800AA16AB171207E1850A82850B837402F0DF
:1033E800EA850882850983F0851282851383EB803C
:1033F800CBEE4F600302323A123574F8A3E0F98538
:103408000A82850B837402F0E8850882850983F0B7
:10341800E985128285138380A3850C82850D83122A
:103428002CD5120FD9EAFC8C82A882C39EE49F4057
:103438004BE86E7001EF70047C00801F8518828550
:103448001983E0FAEE2AFAEF3400FBC3EA98EB940A
:10345800005003E08004EECCC39CFCEC850A828516
:103468000B83F08C0A750B00780A121896850C826B
:10347800850D83E02EFCA3E03F0232217510070280
:103488003233EE4F600302323A850C82850D831287
:103498003866850A82850B837407F08882898312CF
:1034A800355312353BE0851282851383F0E82402F8
:1034B800FAE93400FB8A828B8312355312358C1259
:1034C800355BA3123595123564F0E82405F8E93424
:1034D80000F988828983123564A31235ADA30233BB
:1034E800C1741D12167712364C700302323012382E
:1034F80066880C890DE8450D70030232308E108FF6
:10350800117810121896780A1218967808121896D8
:103518007406121677E0F9AC0EAD0FAA16AB178534
:103528000C82850D831216817406121642E9F51075
:10353800023233F088828983A322F50CEF3400F538
:103548000D22E0F50E750F00780E22E085088285C1
:103558000983221235B42212386AE8221235B4A33C
:10356800A322A3A3A3A3E0FEA3E0FF22850C8285E8
:103578000D83E0F8A3E0F5838882E022E0F508A354
:10358800E0F50922A3A3F08A828B83A3221222AC3E
:10359800A3A322F08A828B831235A422E0F50A7550
:1035A8000B00780A2212353B1235B422E0850882D6
:1035B800850983A3A32274EE12168374FE12162CB7
:1035C8008A0A8B0BECFAEDFB7414121677E0F510EF
:1035D800A3E0F5117416121677E0FE741812167728
:1035E800E0F50EA3E0F50F851882851983AC82AD4E
:1035F80083123641603E85188285198312364C60E5
:103608002FA3A3123584E50845096024780E121803
:10361800967810121896EEF9AC0CAD0DAA0AAB0B01
:103628008508828509831216817404121642800661
:10363800790E80027901022A811206AF8A0C8B0D5D
:10364800EA450D22122CD9123653221207758A82A6
:103658008B83E58245832274F612168374FE121654
:103668002C740C12167712355F851882851983F031
:103678007401121677E9F0E4F508F50978081218CC
:1036880096750802780812189674041216778582BF
:103698000885830978081218961207C97406121645
:1036A800427402121642806474F7121683EAFEEB23
:1036B800FF89087C187D031207E1EA5402600BA910
:1036C80008EEFAEFFB1206A38002790102309D741E
:1036D800F612168374FF6A700374FF6B701C7B000C
:1036E800EB75F003A4F8A9F0EC28F8ED39F91237D6
:1036F800190BEBC39402501480E61207B18A088BA9
:1037080009A808A909E84960031237197F020217B6
:10371800558882898374FF1222AAE4F02274F61273
:1037280016831207B18A828B83E58245836006A3DC
:10373800A3E0FA80027A007B0080D174F21216832B
:103748008A088B09ECFEEDFF740E121677E0F50A75
:10375800123789701CEEFCEFFD7AFF7BFF12378968
:1037680070047911801688828983E508F0A3E50939
:10377800F088828983A3A3E50AF079007F060217FF
:10378800551207B18A0C8B0DA80CA90DE8492274B3
:10379800EE121683EAFEEBFF8C088D09890C741271
:1037A800121677123866741412167712303074169F
:1037B800121677122CD5750D00EC4D600302385A9D
:1037C8007402650C6003023855888289831230358B
:1037D800F9EC2400F50EE439F50FEAF4F8EBF4F906
:1037E800EC58F8E50F59F9E849705DE5082406F842
:1037F800E5093400F9880A890B8882F58312296A59
:103808001207E18A108B11E50E65107004E50F654B
:10381800116042780E121896850A82850B83122948
:103828006A1207E77402121642E9F50D7027780E3E
:10383800121896850882850983A3A312296812079E
:10384800F97402121642800D750D808008750D0DF1
:103858008003750D0BA90D022F3B8E828F831238C2
:103868006A22E0F8A3E0F9221216427F10021755E7
:103878003400F50D850C82F58322E028FEA3E0399B
:10388800FF8E828F83227916850A82850B83122CFC
:10389800D91207C374082274F2121683EAFEEBFFEA
:1038A800890B7401650B600E7402650B70637901F6
:1038B8001209D9E9705BEEFAEFFB12391C60477503
:1038C8000A00800B7C177D007900120FF7050A901B
:1038D80002E5E0F8E50AC3985021E50A75F017A457
:1038E800F8A9F0850882850983A3A3E028FAA3E054
:1038F80039FB8A828B8312239670C98508828509D1
:103908008374FFF0A3F07C187D03EEFAEFFB120737
:10391800DB0237841207AB8A088B09EA450922744F
:10392800F21216838A088B09ECFEEDFF740E12164C
:103938007712311C900CA2E0F4603D7A097B0012EA
:103948001003EA4B60328A828B8374B1F0A3E412CD
:10395800358EA312358CA3E508F0A3E50912398347
:10396800EEF0A3EF123983A3A3E50AF0A3E50BF069
:10397800900CA2E0F912100F023784F08A828B8330
:10398800A3A3A3A3A32274F4121683E9FF7E008ADB
:10399800088B0978081218DA00040D3F3BC139DD9D
:1039A80039F239073A1C3A313A4D3A663A783AA62A
:1039B8003AC83AE43A003B1E3B74016F70128C829D
:1039C8008D83E0C394035008E0900D8EF0023B5DB8
:1039D8007E18023B5D74026F70F68C828D831242F2
:1039E8009B900D8FE8F0A3E980E274016F70E18C81
:1039F800828D83E0C3940250D7E090078180CD7414
:103A0800016F70CC8C828D83E0C3940550C2E09026
:103A1800078280B874016F70B78C828D83E0C3947D
:103A28000250ADE090078380A374106F70A27508F0
:103A3800108E0978081218967A847B0712465F124E
:103A48001642023B5D74016F70868C828D83E0C3E1
:103A5800940240030239D8E09007940239D47401E3
:103A68006F60030239D88C828D83E0900D92808D2F
:103A780074046F60030239D8908FE778081214FC39
:103A88008D838C82780812138E40030239D88C8279
:103A98008D8312151A900796121526023B5DEF606A
:103AA800030239D812064FE9700E12115F795012CD
:103AB80012CD121153023B5D90082974010239D4CA
:103AC80074016F60030239D88C828D83E0C394023D
:103AD80040030239D8E09007950239D474016F6029
:103AE800030239D88C828D83E0C3940A40030239DB
:103AF800D8E0900D910239D474016F60030239D86F
:103B08008C828D83E024F9C3940A40030239D8E0FB
:103B1800900D930239D474016F60030239D890086C
:103B280028E0F88C828D83E0900828F0E87026E081
:103B380064017021023ABAC3EA9426EB9400501348
:103B480074026F700E8C828D831242951204EDE917
:103B5800FE80020E0EEEF9023B67740E1216427FCB
:103B68000402175574F012168374CC12162C8C0AA2
:103B78008D0B7444121677E0FE7420121677AC820F
:103B8800AD8375838F758274740612153F74201285
:103B98001677AC82AD83121105E9F508C3940A4083
:103BA80003023CD075F006E9A4F5097426121677CD
:103BB800AC82AD837A0E74202509124717700974F8
:103BC80032121677E0FF80027F00900D8EE06402CB
:103BD800700474018001E4F50D780D12189AEEFD59
:103BE800EFFCA908AA0AAB0B12118974011216423C
:103BF8007C147D007900740C121677AA82AB8312AC
:103C08000FF7740C121677AC82AD837A10742425E2
:103C18000912471770377C1079FF740C1216771247
:103C280044447029741C121677AC82AD837A0474EC
:103C3800252509F91212C7740C121677AC82AD83C8
:103C4800EFA2E0E433F9AA0AAB0B120577851882D4
:103C5800851983AC82AD837A0C74702508124717D6
:103C68007055851882851983AA82AB831211357520
:103C78000800E50875F003A4F8A9F08518828519ED
:103C880083E58228F8E583124480124295EC4D6062
:103C98001D88828983A3A3E0F50E750F00780E12A4
:103CA8001896AA0AAB0B1207CF740212164205081F
:103CB800E508C3940440BBEFA2E1500C900780E0F4
:103CC800F9AA0AAB0B1207D574046E702A900D8EF0
:103CD800E064027022900794E060047A0180027A1E
:103CE80000900781E06004780480027800E84AF9CF
:103CF800AA0AAB0B120637790074341216427F08F1
:103D080002175574F0121683EAFEEBFF8C088D0932
:103D1800750A0AE9600C14600914602E14607F02A9
:103D28003DB1121147E9F50AC3940A507CE50845EC
:103D3800096076750E06750F00780E121896EEFC5F
:103D4800EFFD12465B121642805F750B00750E067A
:103D5800750F00780E121896EEFCEFFDE50B75F066
:103D68000EA4F8A9F074A228FA740739FB120FF10F
:103D78007402121642E9601B850B0AE50AC3940A0D
:103D88005027E50845096021AA08AB09A90A1211BC
:103D9800418016050BE50BC3940A500D80AF121134
:103DA8004DE9F50AC3940A40D9A90A023D0674F4FC
:103DB800121683890875091574FF6A700374FF6BFE
:103DC80070277E00AC087A027B00EEF9121123E915
:103DD80060037509000EEEC3940A40E8E5086049DF
:103DE8007A777B111209EB80401209CD8A0A8B0B76
:103DF800AE0AAF0BEE4F602E7C007D00EE2405FA74
:103E0800EF3400FB8E828F83123EAD500CAC087AE3
:103E1800027B00121123750900E508600CEEFAEF29
:103E2800FB1211778003750914A909023B6774F224
:103E3800121683ECFEEDFF740E1216771242887587
:103E4800081574FF6A700374FF6B7021750900AC64
:103E58000AAD0BEEFAEFFBA909121129E960037507
:103E680008000509E509C3940A503580E21209CD16
:103E78008A828B83E582458360237C007D00E5820E
:103E88002405FAE5833400FB123EAD5013AC0AADAD
:103E98000BEEFAEFFB121129750800800375081460
:103EA800A908024C86A3A3A3A3E0F9121105E9C34C
:103EB800940A22C082C08390079AEAF0A3EBF0909C
:103EC8000780E0FC7D007A257B001204ED900780D6
:103ED800E0F9120751D083D08202012274EA121647
:103EE8008374EC12162CEAFEEBFFEE240CF514EFAB
:103EF8003400F515EE240AF510EF3400F511EE2420
:103F080005F50EEF3400F50FEE2409F50AEF34003D
:103F1800F50BEE2403F508EF3400F5098E828F8344
:103F2800A3A3E024FA700302425124FD7003024166
:103F380080147003023FCF14601024FD7003024107
:103F4800511470030241B502426F1242B4604AE054
:103F5800F583888212429B880C890DE8450D6039EB
:103F6800851482851583E0F50E780E12189AEE24D2
:103F78000BF582EF3400F583E0F9850A82850B831F
:103F88001242950A0A0AAB09850C82850D8312161E
:103F980081740112164202426F850A82850B8312D0
:103FA80018AD90079612151A120589740212164256
:103FB800E9700302426F7901850A82850B83124AF0
:103FC800AB12058302426F8E828F83A3858212858E
:103FD8008313E0600302412A850E82850F83E0A2E5
:103FE800E0400302412A7C0E7D0079008518828515
:103FF8001983AA82AB83120FF7EE2408F50AEF346F
:1040080000F50B850A82F5831242B76019750C0614
:10401800750D00780C121896850A82850B83E024AA
:1040280010FCA3E0801A124279EA4B700302426F37
:10403800750C06750D00780C121896EA2405FCEB31
:104048003400FD7402121677AA82AB8312465F12FF
:104058001642850E82850F83E0A2E25004D2F080DA
:1040680002C2F0A2F0E433F8740C121677E048F0BC
:104078008510828511831242B760158510828511DB
:1040880083E02410F8A3E03400F988828983800350
:10409800908FE3780C1214FC8510828511831242EC
:1040A800B7600F851082851183E0F510A3E0F51144
:1040B8008006751000751100850A82850B831242EF
:1040C800B7600B850A82850B831242888006750AC1
:1040D80000750B00780C1218927810121896780A4E
:1040E8001218968514828515831218AD8E828F83D7
:1040F800A3124290740A121677AA82AB8312113B5C
:10410800740A12164285088285098312429B900818
:104118002AE8F0A3E9F07A017B00900780E0F91221
:1041280010331242B4700302426F1242A1700302AC
:10413800426F851282851383E0FC7901124AA58EAD
:10414800828F8312168102426F1242B470030242B8
:104158006FE0F5838882A3A312429B890BE8450B85
:10416800700302426F8E828F83A3E0FC7902124AA9
:10417800A58882850B8380CB7C007D00EE2404FA21
:10418800EF3400FB850882850983E0F9121105E9FF
:10419800F8C3940A400302426FAC10AD117A04755B
:1041A800F006E8A42425F91212C102426F9007957F
:1041B800E0600E900D91E0F9850882850983023F41
:1041C800C6900D8EE07004790580ED1242798A0C54
:1041D8008B0DA80CA90DE82404F50CE93400F50DA5
:1041E8008E828F83A3A3A3A3A3A3A3E0A2E0503648
:1041F800E8496073850C82850D83E0FE6028850A96
:1042080082850B83E05410701D740E121677AC82F1
:10421800AD83E82405FAE93400FBEEF9121105E94B
:10422800700479038092AC0EAD0F850C82850D83E6
:10423800E0F9124AA51211831242B4602A1242A16F
:1042480060257C00790002414412064FE9701890FD
:104258000829E06401700812115F900829E4F079D8
:10426800501212CD12115374141216427F0E0217F7
:1042780055850882850983E0FAA3E0FB1209CD225F
:10428800E0F50AA3E0F50B22A3A3A3A3A3E0FCA3F4
:10429800E0FD22E0F8A3E0F922E0F5838882A3A3F9
:1042A800E0F8A3E0F9E8FEE9FFEE4F2290079AE074
:1042B800F8A3E0F9E8492274F412168374F212168E
:1042C8002CEAFE8C0B75F006E9A42420F508851865
:1042D80082851983AC82AD837A0E124717704A7CA7
:1042E8000612443C7043740C12167712429BE8F590
:1042F80009E50B6005EE42098004EEF452098509D0
:1043080082AA82E86A7001E9601B740C121677EAC7
:10431800F0A3E4F0851882851983AC82AD837A0E08
:10432800A9081212C1790180027900023B6274F275
:1043380012168374E612162C890A8A088B09ECFE79
:10434800EDFF740C12167712470A60030243F07CE3
:104358000679FF740C12167712444460030243F086
:104368007470250AF50B851882851983AC82AD8394
:104378007A0C124717600302443585188285198321
:10438800AA82AB83121135E508450970217C0C79A6
:104398000012443E60030244357C0C7D00790085A0
:1043A8001882851983AA82AB83120FF7806185185A
:1043B80082851983AC82AD83AA08AB0912112F8AB2
:1043C8000C8B0DA80CA90DE849702CEE4F601985CF
:1043D8001882851983AC82AD837A007B0012112F75
:1043E800EAF8EBF9EA4B7004790080438882898304
:1043F800E508F0A3E509F01244BCFAEE6A7001EF93
:10440800602BEEF04F700888828983E4F0A3F08572
:104418001882851983AA82AB831211358518828583
:104428001983AC82AD837A0CA90B1212C17901747D
:104438001A024C8379FF851882851983AA82AB8377
:10444800121057E92274F71216837F00EF75F003F4
:10445800A4F8A9F0EC28F8ED124480E06A7003A3F0
:10446800E06B7006E8FAE9FB800B0FEFC394044099
:10447800DB7A007B000247B539F988828983227488
:10448800F71216837E00EE75F003A4F8A9F0EA2867
:10449800F8EB124480E0F4FCA3E0F4FD8882898301
:1044A800ECF0A3EDF01244BCF4F00EEEC39404401B
:1044B800D50247B5E82402F582E93400F583E02205
:1044C80074EE12168374F412162CEAFEEBFF8C0AB3
:1044D8008D0B741E121677E0F50CA3E0F50D742011
:1044E800121677E0F508A3E0F5097422121677E0B2
:1044F800F510A3E0F511EE4F7005790A0245ED12AB
:104508001147E9F50EC3940A4023750F007C06791C
:10451800FFE50F75F00EA4FAABF0749C2AFA740745
:104528003BFB12444870030245F7850F0EE50EC3A6
:10453800940A40030245EB75F006E50EA4F50FEE6C
:10454800FCEFFD7A0E7420124608E50A450B600B55
:10455800AC0AAD0B7A1B7421124608E50C450D60B8
:104568000BAC0CAD0D7A1B7422124608E508450900
:10457800600BAC08AD097A107423124608E51045A3
:1045880011601BAC10AD117A107424124608742403
:10459800121677AC82AD837A0474251246087C0C17
:1045A8007D0079FF124D147A0C7470250EF91212E1
:1045B800C175080E7509007808121896EEFCEFFD13
:1045C800E50E75F00EA4F8A9F0749C28FA74073962
:1045D800FB12465F121642900828E0600312118F02
:1045E80012117DA90E740C1216427F0A0217550586
:1045F8000FE50FC3940A5003024515750E0A80E3B0
:10460800250FF91212C12274F412168374F21216CD
:104618002CEAFEEBFFE9C3940A5004EE4F700479CC
:1046280002802D85188285198312470AF508701EA5
:10463800750A06750B00780A121896740212167716
:10464800AC82AD83EEFAEFFB12465F121642A90860
:10465800023B62AA08AB09120FDF74022274F4123B
:104668001683EAFEEBFF750800750A06750B0078DD
:104678000A121896EEFCEFFDE50875F00EA4F8A9ED
:10468800F0749C28FA740739FB120FF174021216A1
:1046980042E96004A908800B0508E508C3940A40AC
:1046A800C8790A023B6774F712168374F012162C45
:1046B800EAFEEBFF750800851882851983AC82AD88
:1046C800837A1075F006E508A42423124717701F93
:1046D8007C1012443C7018EEFCEFFD851882851999
:1046E80083AA82AB83120559E97004A908800B05D7
:1046F80008E508C3940A40BF790A741012164202EA
:1047080047B5AC82AD837A0E75F006E9A42420F98A
:104718001212C7E92274F7121683750800E50875A6
:10472800F00EA4F8A9F0749C28FE740739FFEEFC7B
:10473800EFFD7A0E75F006E508124714602C7C062A
:104748007D0079FFEEFAEFFB120FF77C067D00790A
:10475800FFEE2406FAEF3400FB120FF7EE240CF5F7
:1047680082EF3400F583E4F0A3F00508E508C3946C
:104778000A40AA900828E0600312118F12117D8068
:104788002C74F71216837E007F007C0679FFEF7584
:10479800F00EA4FAABF0749C2AFA74073BFB12449F
:1047A8004870010E0FEFC3940A40DFEEF97F010253
:1047B800175574F71216837E00EEF91211650EEE86
:1047C800C3940A5003E960F180E374F3121683740A
:1047D800CB12162CE9FF75F006A4F50874202508FD
:1047E800FE7427121677AC82AD837A0EEE12471745
:1047F80060030248D47C0679FF74271216771244A6
:104808004460030248D47C0E7D0079FF7427121699
:1048180077AA82AB83120FF77C1B7D0079FF740C9B
:10482800121677AA82AB83120FF77C0C7D0079FFF2
:10483800851882851983AA82AB83120FF774271211
:104848001677AC82AD837A0EEEF91212C1E9F5093A
:10485800740C121677AC82AD837A1B74211248E36C
:10486800FE740C121677AC82AD837A1B7422124840
:10487800E3F50A740C121677AC82AD837A107423B0
:104888001248E3F50B740C121677AC82AD837A10DC
:1048980074241248E3F50C740C121677AC82AD83BD
:1048A8007A0474251248E3F508851882851983ACC3
:1048B80082AD837A0C74702FF91212C1E9F8EE45B3
:1048C8000A450B450C45084842098003750900A9AB
:1048D8000974351216427F050217552508F9121278
:1048E800C1E92274F7121683E9900780F012115378
:1048F8000247B574F212168374FB12162C8A088BC1
:1049080009EB5480700302499F900780E0F9121068
:104918001B8A0A8B0BA80AA90BE8FEE9FFE8496085
:104928006CEE2404F8EF3400F98E828F83E0245073
:10493800603814600624E1604A804B88828983E0ED
:1049480070448E828F83A3A3A3A3A3A3A31218AD3D
:104958008E828F831242908E828F83A3A3124AABDA
:104968001211117402121642801C88828983E06435
:104978001E701379008E828F83A3A3124AAB121183
:104988000B800312111DEEFAEFFB121009AA08E5BD
:10499800096480FB024AA0EAA2E04003024A9C9014
:1049A800082A124288740312167785820C85830DB3
:1049B800780C121896750C02750D00780C12189662
:1049C800750C23750D90780C1218967CFF7DFF7A74
:1049D800017B001206A97406121642024A84E4F505
:1049E8000CF50D780C121896740412167785820C43
:1049F80085830D780C121896740412167785820C2C
:104A080085830D780C12189674091216771218AD52
:104A18007902EEFCEFFDAA0AAB0B1207C374081269
:104A28001642E97035851882851983E0FA740112F7
:104A38001677E0F9EA2400F50CE439F50DEA450D9E
:104A48006018780C1218968E828F83124291AA0AE7
:104A5800AB0B1211117402121642E4F50CF50D7825
:104A68000C12189674051216771218AD7CFF7DFF8C
:104A7800EEFAEFFB1206B574041216428A0C8B0D7F
:104A8800AE0CAF0DEE4F60030249E6E5086401FA8B
:104A9800AB0980047A007B007405024C8385088288
:104AA800850983E0FAA3E0FB22C082C083900780D7
:104AB800E0F98A828B83A3124AAB1207D5023EDD46
:104AC800C082C08374FF12162C121159E9C39402D4
:104AD800851882851983400474028002740AF0AC38
:104AE80082AD837A017905120667740112164202B3
:104AF8003EDD74F212168374E812162CEAFEEBFF00
:104B0800890A8C088D097C187D007900124D1CEEED
:104B1800F0A3EFF0900782E0C0E07402121677D09D
:104B2800E0F0900783E0C0E07403121677D0E0F05D
:104B3800900D93E0C0E07417121677D0E0F074156A
:104B4800121677E054FEF8A3E0F9900D92E0A2E087
:104B5800E433FAE84AF87415121677124C92A2E177
:104B68005004D2F08002C2F0E854FDFAA2F0E43317
:104B780033F8EA48F87415121677124C92A2E350EB
:104B880004D2F08002C2F0E854F7FAA2F0E433F558
:104B98000C750D007403780C121619124C8B121632
:104BA80077124C92A2E45004D2F08002C2F0E8548A
:104BB800EFFAA2F0E433F50C7404780C121619120B
:104BC8004C8B121677124C92A2E55004D2F0800258
:104BD800C2F0E854DFFAA2F0E433F50C7405780C5F
:104BE800121619124C8B121677124C92A2E250042C
:104BF800D2F08002C2F0E854FBFAA2F0E433F50CDC
:104C08007402780C121619124C8B121677E8F0A35E
:104C1800E9F0900783E0601B750C10780C12189669
:104C28007C847D077406121677AA82AB8312465FCE
:104C3800121642900794E06011E50A600974151293
:104C48001677E04402F07801800278007414121696
:104C580077E048F0900781E06004780480027800EB
:104C68007414121677E048F0AC08AD0985188285EF
:104C78001983AA82AB8312057D74181216427F0627
:104C8800021755EA450CF8741522E8F0A3E9F090EC
:104C98000D92E02274F312168374E512162CEAFEC4
:104CA800EBFF8C098D0A7428121677E0F50C75F065
:104CB80006E9A4F87408650A700474228002742155
:104CC80028F50B7C1B7D007900124D147A1BA90B6B
:104CD8001247187032741A121677E024F9C3940A2E
:104CE8005025E50CF50B780B12189A7401121677FB
:104CF800AC82AD83E509A2E0E433F9EEFAEFFB12EA
:104D0800058F7401121642741B0248DB124D1CAC4D
:104D180082AD8322851882851983AA82AB83120FFC
:104D2800F78518828519832274F7121683120841B1
:104D3800750800E50875F00EA4F8A9F0749C28FE23
:104D4800740739FF7C0679FFEEFAEFFB12444870CE
:104D580009EEFAEFFB79001208470508E508C39445
:104D68000A40D00247B5C082C0839061907404F0B5
:104D7800A37448F0A3E4F09061807440F09061BCA3
:104D88007407F09061877469F09061B67416F079D1
:104D980000120ACF7902120AD5902168E493F460D0
:104DA80006E493F9120AAB7905120DC30251B0C09B
:104DB80082C083E9540FF9906185E0696012E5C605
:104DC80054804449F5C6E59E547F644970F8E9F07B
:104DD80053C680E59E547F70FA0251B074F71216DC
:104DE80083E5A8FE53A87E120AB7C2BA539AFEC238
:104DF80089759B00C2C2120ABD75A91175B9051241
:104E08000AC3D2BA439A0174805E42A802573DC0D1
:104E180082C083906181E4F0A30251AD75E9007509
:104E2800910075BF00020122C082C083906181E4B5
:104E3800F0A374C0F0A3E40251AFC082C08374F839
:104E480012162C9003C412561FE8497003024EF93B
:104E58009003C4E05440602379088518828519833B
:104E6800AA82AB83120BC5851882851983AA82ABE7
:104E78008312086B9003C4E054BFF0E054806010C4
:104E8800790C7A807B05120BC59003C4E0547FF03F
:104E9800E0A2E050087900124F0154FEF0E05402FD
:104EA80060087901124F0154FDF0E054046008795C
:104EB80000124F0C54FBF0E0540860087901124FBF
:104EC8000C54F7F0E0541060087902124F0C54EFBC
:104ED800F0E0542060087903124F0C54DFF0A3E08F
:104EE8005401600D120AE112087D9003C5E054FEDA
:104EF800F074081216420251B0120ACF12087190CB
:104F080003C4E022120AD51208779003C4E022C035
:104F180082C083E9600514602A804F90619A7433D7
:104F2800F0A37455F09061A0743AF090055CE064C9
:104F3800017009C2919003C67467802D9003C674EE
:104F480061802690619A743FF0A3745AF09061A032
:104F5800747FF090055CE064017009D2919003C6FB
:104F6800747180059003C6746AF00251B0C082C0A3
:104F780083E9600B14600D14600F14601180209099
:104F8800216C801590216D801090216E800B90050A
:104F98005CE0640160F390216FE493906186F00215
:104FA80051B074EE12168374F412162C851882858B
:104FB8001983AC82AD8375838F7582F374041215DF
:104FC8003F90216C93F4600302513C907808E0C351
:104FD8009402500302511C7404121677AC82AD83FC
:104FE80075838F758251740812153FF97AFF7BFF1C
:104FF8007FFF7E008982858210801874086E700396
:105008000250D174096E70030250D1740A6E700395
:105018000250D1E510C333FCE433FD740412167753
:10502800E5822CF582E5833DF583E0F50EA3E0F5F6
:105038000F8E08750900740278081216197448252D
:1050480008FC74783509FD8C828D8378081214FC6D
:105058007408780812143D85080C85090D8C828D1A
:105068008378081214FC7418780812143DE50C456E
:1050780008F508E50DF509C3E50E9508E50F95094E
:105088008C828D8378081214FC8C828D83780812A8
:1050980014FC74187808401412143DE50C4508FCFB
:1050A800AD0DE50EC39CFCE50F9D800F12143DE588
:1050B8000C4508C3950EFCE50D950FFDC3EC9AED64
:1050C8009B5006ECFAEDFBEEFF0EEEC39413500373
:1050D80002500374FF6A700374FF6B602D8F0874AD
:1050E8000278081216197448125DCB74783509F5E0
:1050F8008378081214FC851882851983E5822510A7
:10510800F582E583125B58E508F009E9C394045079
:1051180003024FF47508017509007808121896748F
:1051280002121677AC82AD837A5B7B081211D174B8
:1051380002121642740C1216427F0A021755C082D8
:10514800C083906186E0F890216FE49368700990BD
:10515800216EE493906186F09061AE7468F0A37458
:105168006AF090624574FBF0A304F053F4FD43FE2B
:105178000290055C7401F09061A0E0643A700479D3
:105188000080027901120ACF0251B0C082C0839018
:10519800050EE06401700A900513E06004790C8044
:1051A8000279008003F0A3F0D083D082020122C0EC
:1051B80082C08375E1F1900511E0604D1460081418
:1051C80060511460498051120AF3900507E0F97A9A
:1051D800087B05120D45908FEF12151A120D7B9062
:1051E800900712151A120D51900512E0F9120D5D73
:1051F8007901120DB7900505E02416125345740B7A
:10520800F0A3740BF07900809F120AF980BC120A8F
:10521800FF80B7120B0580B2791280EB74F4121676
:105228008375D90D9004F6E0A2E0E4331313F81265
:1052380052B1484401F5D9780012532F40FB780049
:10524800880874F7125DCB740412533940F275E183
:10525800959004F6E0F97AF77B04120D4B900CC494
:105268007481F0A3740A12535412537412536B12BC
:1052780054AC1252BB78081214FC908FD7780812DD
:105288001488908FFF78081214D612533F780812AA
:10529800150B900505E024141253457413F0900380
:1052A800C27402F07F04021755900507E0C4333337
:1052B80054C022900505E0F8A3E0F5838882A3A3F3
:1052C8002274F612168312547D8AD9780012532F4D
:1052D80040FB780080061253E312552FE8C399402B
:1052E800F512546F12532F40FB78008008125DC7E7
:1052F800740512552FE8C39940F375E195900CC4D5
:10530800748DF0A3740A12535412535E12151A12B4
:10531800533F121526900505E024141253457412C4
:10532800F09003C202571A880874082508F5827499
:105338000512568B940622900505E0240EF8A3E08A
:1053480012534C223400F9888289832212549574AE
:1053580087F0A3740A2212537412536B1254B0903C
:105368008FE322F0A3749FF0A3740A2212537822C9
:1053780012537C22F0A37431F0A3740C2274F61239
:1053880016831253D81252B14402F5D97800125339
:105398002F40FB780080061253E312552FE8C3997B
:1053A80040F575E195900CC41253EEF0A31253EE3C
:1053B80012536112151A12533F121526900505E073
:1053C80024141253457414F09003C2740402571C39
:1053D800900517E0F9740729F5D92288087418256B
:1053E80008F58274052274991253FB1253FBF0A33B
:1053F800740A22F0A3740AF0A374992274F61216A0
:105408008312547D74064AF5D9780012532F40FB55
:10541800780080061253E312552FE8C39940F5121D
:10542800546F12532F40FB78008008125DC7740533
:1054380012552FE8C39940F375E195900CC4749305
:10544800F0A3740A12548B12535E12151A12533FAA
:10545800121526900505E024141253457415F09092
:1054680003C2740302571C9005371253DB74044AB5
:10547800F5D97800221253D8900507E0C433335485
:10548800C0FA221254957431F0A3740C2212549964
:10549800221254A67431F0A3740C1254A62212538B
:1054A8007CF0A3221254B022F0900CD27431F0A3F5
:1054B800740C1254997431F0A3740C125378F022BE
:1054C800C082C0831252BBA3A3A3A3E40251AD744C
:1054D800F712168312600DF8740339F9E82405FAF7
:1054E800E93400FB8A828B83125D7C88828983A3DE
:1054F800A3A3A3A3A3A3A3A3ECF0A3EDF08882899D
:1055080083A3A3A3A3A3A3A3E024FFF8A3E034FFEA
:10551800F98A828B83E8F0A3E9F002573D88087482
:10552800602508F5827405125CA3F5D90822EAFE05
:10553800EBFF9061D0E0F87480C398FAEE248322E0
:1055480012554E940422125B66E0F5D90AEAC3228A
:1055580074F6121683EAFEEBFF9061D0E070757561
:10556800D90E75D90375D9047A008A08EE25081270
:1055780060DB248C1255F140F17A008A08EE250888
:105588001260DB248412554840F175E1957908EEE4
:10559800248C1255EA24841255E17C008C82AA825C
:1055A800C3E49AF895E0F9EE28F8EF39F9E8248B86
:1055B800F582E9125C9FC0E0EE2A1260DB24ABF5AD
:1055C80082E9125B58D0E0F00CECC3940840CD128D
:1055D80056A78002790002571DFAEF3400FB120B20
:1055E800B9221255E17904EE2212554E940822C0D0
:1055F80082C08375D90275D90375D90575E195EA15
:105608002470F582EB12561CEA2472F582EB1256CE
:10561800B90251B0125B6912562322E0F8A3E0F9EF
:105628002274F6121683EAFEEBFF900560740612E8
:1056380056951218967C0179031259C112164275B3
:10564800D90675D903780012567B40FB75E1959011
:1056580003C2E064087017EE2470F582EF12561C3E
:10566800EE2472F582EF125B58E8F0A3E9F07901B5
:1056780002571D880874602508F582740512568B38
:10568800940522125B69E0F5D908E8C322F0750891
:105698006075090578082275E1957904120D81EE87
:1056A8002470F582EF125B69125623EE2472F5829C
:1056B800EF125B69E8F0A3E9F079012274F612169B
:1056C80083EAFEEBFF9061D0E070437901900560BA
:1056D800740BF09003C2E0640770177508607509D1
:1056E8000578081218967C0109091259C112164248
:1056F8007905740129F5D975D90378008003125505
:1057080025E8C39940F875E1951256A780027900FB
:1057180080037401F07F0202175574F7121683EAAA
:10572800FEEBFF75D90375D90375D90DEE24DE128A
:10573800574212569F7F01021755F582EF125CA35C
:10574800F5D9227F030217557401250AF5D975D9B1
:105758000378002274F51216831257D16004780476
:1057680080027800E8240BF8EAC3984041750A09DA
:105778009005607409F079081257BA6014750860CA
:1057880075090578081218961259B9121642750A41
:105798000D1257508003125525E8C3950A40F77536
:1057A800E1957904120D8112593679018002790048
:1057B8008091EE24E3FCEF3400FD7A617B05120B47
:1057C800B3850882850983E022125536F8EF125D09
:1057D80070F583E02274F31216838A088B09125934
:1057E800CCFAE5082483F50AEB12589B6004780488
:1057F80080027800E82408F8EAC398500302589415
:10580800750C06900560740CF09003DFE09005615C
:10581800F07402C0E0F97CE07D037A627B05120B2C
:10582800B3D0E0F97CE27D03120BB3850A82850BC5
:1058380083E0601C750A60750B05780A1218967C5F
:10584800067903AA08AB091259C1121642750C0A47
:105858007401250CF5D975D90378008009880A7474
:1058680060250A12552BE8C3950C40F175E195792E
:1058780004120D81E5082470F582E50912561CE52D
:10588800082472F582E5091256B9800279007F056D
:105898000217553400F50B850A82F583E02274F669
:1058A800121683EAFEEBFF1259CCFCEE2483F8EFC4
:1058B8001259C760047A0480027A00EA2404FAECD8
:1058C800C39A405E7A02900560EAF0EE24F5F5820C
:1058D800EF125942601975086075090578081218A1
:1058E800967C027903EEFA1259C11216427A0674AE
:1058F800012AF5D975D90378008003125525E8C324
:105908009A40F875E195EE247412592FEE2480120E
:10591800592F1259367904120D81EE240D1256AA08
:105928008002790002571DF582EF125AB222EE2446
:105938001DF582EF125AB2A3F022125CA390056102
:10594800F088828983E02274F61216831259CCFEFD
:10595800EA2483F8EB1259C760047C0480027C00B7
:10596800EC2404FCEEC39C40437C02900560740761
:10597800F0EA24F6F582EB12594260157508607555
:105988000905780812189679031259C11216427C33
:105998000674012CF5D975D90378008003125525B2
:1059A800E8C39C40F875E1957901800279000257B7
:1059B8001D7C097903EEFAEFFB120C257402221202
:1059C800534CE0229061D0E0F87480C3982274F5BB
:1059D800121683E9FEA2AFE433F50AC2AF7F00EAEC
:1059E800246FF8EB3400F980010F88828983E0FC8A
:1059F800EFC39C50188F08EA2508FCEB3400FDEC37
:105A0800246BF582ED125C9F6E70DE8010EA2CFA32
:105A1800EB3400FB125B52EE12594804F0E50AA27F
:105A2800E092AF02574B74F6121683A2AFE433FF2D
:105A3800C2AFEA246FF8EB1260DDFCE9FD8C828DC1
:105A480083E014F07E0080218E08EA2508F8EB1226
:105A580060DD246CF582E9125C9FC0E0E8246BF5F8
:105A680082E9125B58D0E0F00E8C828D83E0F8EE6C
:105A7800C39840D4EA246E125B5574FF125AA7EFFC
:105A8800A2E092AF02571DC082C083E5A8F8C2AF5A
:105A9800125B52E9125AA7E8A2E792AF0251B0F09E
:105AA800EA246AF582EB125AB222125B69E4F02208
:105AB80074F21216838C828D83A3A3A3A3E0541FD0
:105AC800F0EA2436125E148E828F83E4F0F50C859A
:105AD8000C8285820AEC250AF8ED125D6CF583E0EC
:105AE800C0E0EA250AF8EB125B5CD0E0F0750D0027
:105AF800850882850983E0F50A750B00E50D780AAB
:105B08001215FAE50AA2E0502AE50C33333354F8AB
:105B1800250DC0E08E828F83E0F8EA28F8EB12604A
