:020000040000FA
:0600000002011D021DEFCC
:03002B0002253279
:030033000225148F
:03005300021E6228
:03006B000224EB81
:10008300021CA3E5C754F84401F5C7790122000017
:100093000080FB120086B90003020107E47921788E
:1000A30008B800028004F709D8FCE479297802B87B
:1000B30000028004F709D8FCE490028178F0790803
:1000C3008002F0A3D8FCD9FA781A90014D7A01BACC
:1000D30000028007E493A3F608DAF9900A70AA8273
:1000E300AB8390014E78CA79038015E493A3AC8265
:1000F300AD838A828B83F0A3AA82AB838C828D83A8
:10010300D8E9D9E77582BA7583A3740312012F75F1
:100113008291758300740012012F75D00075813FA1
:10012300751881751902759F00020096C09FF59F8F
:10013300E473D09F22D083D082C09FE493C0E07445
:100143000193C0E0740293F59F2201FF0000B40005
:100153000028002800283075A000A000A000A000FF
:1001630000080008E001F00010001000100010006B
:100173001000100050005000500010001000D00775
:100183000000000000000F000100050030750700AB
:100193001000010081FF0000FF150633061B06FF58
:1001A30002020208025000A0000000E803029F843C
:1001B3000100008884029B84010000C50A02958423
:1001C300010000B202029B84010000C60A0293846C
:1001D300010000C802029B84010000C70A02918447
:1001E300010000CA02029B84010000C80A0297842E
:1001F300080000CB02029B84010000C90A02A38409
:10020300010000CA0AFF0100FF20029F84010000D1
:100213008B84029B840100002E0B02B98400000032
:10022300000002A5840300001803FD0BFD0BFD0B6A
:10023300FD0BFD0BFD0BFD0BFD0BFD0BFD0BFD0B7B
:10024300FD0BFD0B8B0EA30E850EFFFF02020202B8
:100253000202020202010D0000001001029F84014C
:1002630000008E84029B84010000710B02B784019D
:1002730000007807029B84010000720B02B5840121
:1002830000006983029B84010000730B02B38401A5
:1002930000004083029B84010000740B02B18401BF
:1002A3000000BB82029B84010000750B02AF840136
:1002B3000000CD82029B84010000760B02AD840115
:1002C3000000A982029B84010000770B02AB84012A
:1002D30000009782029B84010000780B02A984012D
:1002E30000004E83029B84010000790B02A7840166
:1002F30000007A0B01E803053F10FF00013075038E
:1003030002010600000000000000000000000000E1
:10031300000000000000000000000000000000FFDB
:10032300FF0600800CE8030809466C6578626F7469
:10033300051210002000020A000201060302E0FF7A
:10034300466C6578626F74051300001113065243FF
:10035300206368617200045458206368617200046A
:10036300436861726163746572697374696320338E
:100373000010525820636861720002436861726121
:10038300637465726973746963203500029F840125
:1003930000008584029B84010000720C02C1840367
:1003A30000002E0A029984010000730C029B840151
:1003B30000007B0C02C384020000340A029984010A
:1003C30000007C0C029B84010000840C02C58402A3
:1003D3000000460A029984010000850C029B8401F7
:1003E3000000960C02C784000000510A02A5840392
:1003F3000000650A029984010000970C029B8401A6
:1004030000009F0C02BD840400006B0A0299840162
:100413000000A00C120138979703120138AE97031E
:10042300120138DD97031201381698031201383E82
:1004330098031201386C9803120138839803120150
:10044300389A9803120138B09803120138D79803E9
:10045300120138EA98031201380099031201381384
:10046300990312013838990312013811A4021201B9
:100473003810A50212013845A50212013866A502FB
:1004830012013876A50212013897A502120138A38A
:10049300A60212013870A702120138E3A702120163
:1004A3003869A802120138ACA802120138E3A80285
:1004B30012013869A9021201383BAA0212013899C4
:1004C300AA02120138B1AA021201382BAB0212019F
:1004D300382EAB0212013831AB02120138D8AB020D
:1004E300120138F0AB0212013820AC02120138407D
:1004F300AC021201382EAD02120138E4AD02120132
:10050300388DE402120138B5E402120138E3E40243
:100513001201381AE50212013882E502120138CBC2
:10052300E50212013816E60212013854E6021201FE
:100533003891E602120138BFE60212013866E7027B
:1005430012013870E7021201387DE702120138B058
:10055300E70212013872E8021201387EE802120142
:100563003896E802120138A0E80212013837A003D6
:1005730012013845A0031201385DA003120138753A
:10058300A003120138D2B60112013870B70112016B
:1005930038E8B701120138FDB80112013837B90143
:1005A300120138E0B901120138B5BA011201381944
:1005B300BC0112013870BC01120138F7BC011201F1
:1005C30038DEBD011201382BBE01120138B9BE015C
:1005D300120138DDBE01120138B2C001120138F335
:1005E300C00112013815C10112013896C10112016F
:1005F3003880C20112013846C301120138CBCD0243
:100603001201389DCE0212013846CF0212013889F9
:10061300CF0212013816D002120138A2D002120101
:100623003883D102120138B2D102120138AED2029C
:10063300120138F6D202120138F8D3021201383C03
:10064300D40212013862D40212013855A2031201F6
:10065300380080031201381680031201383C8003EE
:100663001201386481031201386E8103120138C705
:100673008203120138C783031201385EDA021201C2
:100683003893DB02120138C6DB0212013810DC0298
:10069300120138CEDD021201387E9801120138E1D1
:1006A3009801120138269A01120138369A01120173
:1006B30038599A01120138A49A01120138499B0151
:1006C3001201383F9C01120138099D011201388142
:1006D3009E01120138C39E01120138619F0112016C
:1006E30038AE9F01120138D49F01120138C2A10113
:1006F300120138C7A101120138A8A301120138FC65
:10070300A3011201385EA40112013886A40112016B
:10071300382AA501120138ECA5011201381DA601E2
:1007230012013820A60112013868A601120138AA65
:10073300A60112013811A701120138168D03120107
:1007430038298D03120138428D031201388D8D0330
:10075300120138688E03120138F78E0312013842F2
:100763008F03120138933D001201389F3D0012019F
:1007730038D83D001201381D3E00120138D43E0026
:100783001201385A3F00120138863F00120138BF68
:100793003F00120138D34100120138AF4300120168
:1007A300389A4500120138D1460012013831490008
:1007B3001201381D4A00120138634B0012013870D0
:1007C3004C001201388D4C00120138C54C00120147
:1007D30038DF4C00120138474D00120138E1510057
:1007E300120138825200120138D35200120138FA32
:1007F30052001201384853001201386653001201A7
:1008030038BA5300120138C254001201384A550055
:1008130012013884DF021201388EDF0212013859C7
:10082300E00212013874E0021201389AE002120168
:1008330038DEE00212013816E1021201383FE1020C
:10084300120138B8E102120138CDE102120138E297
:10085300E10212013819E2021201382DE2021201FB
:10086300385EE20212013898E202120138C4E20251
:10087300120138FCE20212013879E302120138CD89
:10088300E30212013816E40212013840E4021201B5
:100893003865E402120138ECFA02120138B6FB02A1
:1008A30012013899FC021201380FFD02120138516E
:1008B300FD021201387EFE0212013800800212018D
:1008C30038298002120138428002120138878102DE
:1008D3001201386582021201388482021201381132
:1008E3008302120138548302120138A184021201D7
:1008F30038408502120138BF870212013856880238
:100903001201382A89021201380C8A02120138783E
:100913008B021201380B8C02120138D8FE0212012D
:100923003841FF0212013895FF02120138BCFF0261
:100933001201384BF202120138B8F20212013803E5
:10094300F302120138F8F302120138F4F40212012F
:1009530038DEF5021201384FAE0212013891AE02B1
:100963001201386BAF0212013844B0021201383F52
:10097300B1021201381EB2021201388AB202120108
:100983003851B302120138BCB30212013823B40246
:100993001201384EB402120138BFB40212013852A8
:1009A300B502120138BBB502120138D0B5021201EB
:1009B3003818B60212013831B60212013896B6025F
:1009C30012013899B60212013838870312013860D0
:1009D30087031201389E87031201385C88031201D2
:1009E30038C78803120138E388031201380B8903DF
:1009F3001201383B89031201384A8903120138C4B2
:100A03008903120138EA8903120138DBA7011201B5
:100A130038B8A901120138B3AB0112013886AC0111
:100A2300120138D1AC011201381CAD011201382E6C
:100A3300AD011201386EAD01120138A3AD011201EF
:100A430038EFAD011201381EAE0112013841AE017B
:100A53001201388EAE0112013817AF01120138248A
:100A6300B1011201380FB30112013852B30112015F
:100A730038B7B401120138F8B4011201386BB5016B
:100A8300120138B7B501120138D8B501120138A8DF
:100A9300B601120138828C02120138AD8C021201A8
:100AA30038949302120138B89502120138739702F1
:100AB300120138D09802120138582500120138EF7C
:100AC30025001201381C260012013862260012018B
:100AD30038A12700120138C527001201385C29000C
:100AE300120138D62900120138F1290012013866A3
:100AF3002A00120138952B00120138F02C00120144
:100B030038F22D001201384F2F00120138682F00E0
:100B1300120138C52F00120138A73000120138DA4C
:100B230030001201384A3100120138C43100120179
:100B330038133200120138DF3200120138E4330077
:100B4300120138C334001201384E3500120138BC8B
:100B530035001201383036001201385936001201BF
:100B630038183700120138923800120138AF3800B4
:100B7300120138CE38001201385F3900120138846F
:100B83003900120138AC3900120138273A0012013A
:100B930038813A00120138D53B00120138923C00EB
:100BA300120138653D00120138F9D30112013849A9
:100BB300D40112013855D40112013832D501120182
:100BC3003862D5011201389AD50112013819D601BC
:100BD30012013851D601120138A3D601120138E0AF
:100BE300D60112013805D90112013831DB01120196
:100BF300382CDD0112013807DF01120138F47F00C0
:100C0300120138CD8401120138178501120138F61B
:100C13008A01120138778C01120138D69201120130
:100C230038D193011201380E940112013831940125
:100C33001201387394011201387C94011201388631
:100C4300940112013872950112013866960112015E
:100C530038B155001201382960001201382F6000A5
:100C63001201383B670012013846FC01120138DCDF
:100C7300FC01120138F2FC011201386CFD01120172
:100C830038C2FD0112013800FE011201385DFE0178
:100C9300120138DAFE01120138E3FE01120138EFC6
:100CA300FE0112013802FF011201383EFF01120159
:100CB3003854FF01120138B3FF01120138A0F602C4
:100CC300120138ADF602120138C7F60212013806D6
:100CD300F70212013844F702120138A9F702120190
:100CE30038BEF702120138C9F702120138D6F702EB
:100CF300120138EDF702120138FBF7021201380630
:100D0300F80212013812F80212013821F802120116
:100D1300382CF8021201384FF802120138F8F802A1
:100D230012013808F90212013822F9021201383F80
:100D3300F9021201385BF90212013880F90212013B
:100D4300388AF9021201389EF902120138BDF902FC
:100D53001201381EFA0212013824FA021201382A4B
:100D6300FA0212013830FA021201383CFA02120177
:100D7300386FFA02120138CDE1011201384FE20156
:100D8300120138F8E20112013840E4011201384E31
:100D9300E60112013834E70112013869E701120153
:100DA300388BE70112013834E80112013804EA01F3
:100DB3001201382DEA01120138A5EA01120138D7D0
:100DC300EA01120138E4EA011201382FEB011201A2
:100DD3003853EB01120138A4ED01120138AEEE01D4
:100DE3001201380AEF011201387BC5011201388C58
:100DF300C60112013870C7011201387AC701120106
:100E0300389CC701120138A8C7011201384CC90127
:100E130012013879C9011201388FCA01120138E46D
:100E2300CA0112013833CC0112013808CD01120175
:100E33003864CD01120138CFCD0112013804CE013F
:100E430012013847CE0112013811D101120138299C
:100E5300D101120138BAD101120138C8D1011201EE
:100E63003815D20112013823D2011201388FD20171
:100E73001201380AD30112013861D301120138F388
:100E83009802120138159902120138269B021201A9
:100E930038E59D021201380F9F02120138CD9F02DF
:100EA300120138B9A002120138DE9503120138038A
:100EB3009603120138799603120138AEC602120165
:100EC30038B7C602120138C0C60212013898C702E9
:100ED30012013849C90212013879C902120138A432
:100EE300C902120138D4C902120138FFC902120122
:100EF3003833CA021201385FCA02120138A2CA0289
:100F0300120138CDCA0212013814CB02120138691A
:100F1300CB02120138ABCB0212013805CC0212010D
:100F23003830CC021201387FCC02120138AFCC0228
:100F3300120138DACC0212013808CD021201382B23
:100F4300CD02120138DEA2031201380AA3031201F3
:100F53003837A30312013841A30312013851A30305
:100F6300120138D7D402120138E1D4021201382217
:100F7300D5021201386BD502120138A5D502120130
:100F830038FBD5021201381CD60212013825D602CD
:100F930012013879D602120138A2D602120138ACF6
:100FA300D6021201381AD702120138AAD702120147
:100FB3003805D80212013833D802120138BBD802DF
:100FC300120138FAD8021201382FD902120138411E
:100FD300D90212013860D90212013869D90212010B
:100FE3003830DA02120138869D03120138ED93037B
:100FF300120138239403120138579403120138A4C1
:101003009503120138BFA103120138D5A1031201C0
:1010130038DFA10312013829A2031201385BA303AD
:1010230012013835E90212013848E9021201380980
:10103300EA0212013848EA0212013865EA02120193
:10104300389EEA02120138EBEA021201381DEB0264
:1010530012013854EB021201385DED021201385AC5
:101063009F031201387D9F03120138AC9F031201C5
:1010730038EE9F03120138328A03120138578A036C
:10108300120138818A0312013812A403120138F6BF
:101093006B00120138D46D00120138736F00120116
:1010A300381E70001201389E70001201382371003F
:1010B3001201384C71001201382775001201389E55
:1010C3007500120138B57600120138EF760012016F
:1010D30038307700120138777800120138CD780064
:1010E300120138167900120138857900120138F19E
:1010F3007900120138227A001201383A7A0012017B
:1011030038537B00120138637B00120138197D00CC
:10111300120138307D00120138627D00120138045B
:101123007F00120138987F001201380EA1031201CB
:10113300381FA10312013868A403120138A7A403BE
:10114300120138EDFF021201387D9E031201388D22
:101153009E03120138A29E03120138549F03120109
:1011630038849C03120138099D031201386D9D03D5
:101173001201384A9903120138739903120138D9BD
:101183009903120138F999031201384A9A0312019B
:1011930038A59A03120138DF9A03120138E29A0341
:1011A300120138D18303120138FE83031201387010
:1011B30084031201388584031201389D85031201CB
:1011C3003816860312013835860312013858860310
:1011D300120138958603120138AD860312013803D4
:1011E3008703120138E3FF01120138F3FF011201F3
:1011F30038F6FF01120138F87F00120138B391036A
:10120300120138439303120138A49303120138EAFD
:101213009303120138DEA403120138E3A40312017D
:1012230038EAA403120138ECA403120138EC9A0340
:101233001201383E9B03120138B19B031201381E81
:101243009C031201386C8F03120138968F0312012D
:1012530038659003120138419103120138BDB6027B
:1012630012013889B702120138CAB70212013804D1
:10127300B80212013862B802120138B6B80212017C
:101283003814B902120138AAB902120138B2BA02EB
:101293001201383CBC02120138DABC021201384197
:1012A300BD0212013854BD0212013848BE021201B8
:1012B3003891BE0212013857EF0112013889F20149
:1012C3001201381AF40112013871F4011201388E37
:1012D300F4011201380EF5011201388AF6011201E8
:1012E3003859F701120138C6FA01120138B0FB016F
:1012F300120138F3BE021201389DBF021201389F5A
:10130300C20212013823C30212013839C402120186
:1013130038B3C5021201382CC602120138C9ED02D6
:101323001201380EEE021201382BEE021201387947
:10133300EF02120138E5EF02120138D1F002120177
:101343003812F202120138B1A403120138D67F0019
:10135300E066701008A3E066700A08A3E0667004F4
:1013630008A3E06622C3E7960809E7960809E7960B
:101373000809E79622C3E09608A3E09608A3E0963F
:1013830008A3E09622C008C3E096F50808A3E096F8
:10139300420808A3E096420808A3E09645087001B6
:1013A300D3D00822080808EAC0E0EBC0E086F0E7E3
:1013B300A4FA180986F0E7A42AFA180986F0E7A424
:1013C3002AFA180986F0E7A42AFA1986F0E7A4FB9B
:1013D300E5F02AFA190886F0E7A42BFBE5F03AFAC0
:1013E300190886F0E7A42BFBE5F03AFA18180986EA
:1013F300F0E7A4C5F02BFBE43AFA1908E7C5F0C6F9
:10140300A426F6E5F03BFBE43AFA1886F0E7A4F6E7
:10141300E5F00826F6E43B08F6E43A08F6D0E0FBEC
:10142300D0E0FA22E4CFC0E0E4CEC0E0E4CDC0E0F7
:10143300E4CCC0E075F020C3E633F608E633F608E3
:10144300E633F608E633F6181818EC33FCED33FDF3
:10145300EE33FEEF33FFC3EC9709ED9709EE9709DF
:10146300EF97191919400FFFEC97FC09ED97FD0948
:10147300EE97FE191906D5F0BEECF709EDF709EE64
:10148300F709EFF7191919D0E0FCD0E0FDD0E0FE21
:10149300D0E0FF226016080808C6C313C618C61397
:1014A300C618C613C618C613C6D5E0EA22700908C3
:1014B3000808226016181818C6C333C608C633C6F0
:1014C30008C633C608C633C6D5E0EA22E627F608BF
:1014D30009E637F60809E637F60809E637F622E0A3
:1014E30026F608A3E036F608A3E036F608A3E036AE
:1014F300F622E026F008A3E036F008A3E036F00871
:10150300A3E036F022C3E697F60809E697F6080942
:10151300E697F60809E697F622C3E096F008A3E0FB
:1015230096F008A3E096F008A3E096F022E056F6C2
:1015330008A3E056F608A3E056F608A3E056F62201
:10154300E056F008A3E056F008A3E056F008A3E045
:1015530056F022E0F608A3E0F608A3E0F608A3E0BD
:10156300F622E6F008A3E6F008A3E6F008A3E6F007
:1015730022E0FAA3E0FBA3E0FCA3E0FD22EAF0A350
:10158300EBF0A3ECF0A3EDF022CAC0E0E6F0A30871
:10159300DAFAD0E0FA22CAC0E0E0A3C582CCC58261
:1015A300C583CDC583F0A3C582CCC582C583CDC514
:1015B30083DAE6D0E0CA22C3E498F8E499F9121575
:1015C300FB8026C3E49AFAE49BFBE920E7E91215C2
:1015D300FBE498F8E499F922C3E498F8E499F91242
:1015E30015FBE498F8E499F9C3E49AFAE49BFB2227
:1015F300EB20E7CFE920E7E0B90010BB0008E88A59
:10160300F084F8AAF022E4FBC8FA22EB70227B10E4
:10161300C833C8C933C9335007C39AC3DBF2800642
:101623009A50012ADBEAC833F4C8C933F4C9FA2251
:1016330075F008E4C833C8C933C933C99AC99B5084
:1016430004C92AC93BD5F0ECFBC833F4C8E4C9FA92
:1016530022600D08C6A2E713C618C613C6D5E0F369
:1016630022600C08C6C313C618C613C6D5E0F422FD
:10167300700422600D18C6C333C608C633C6D5E04E
:10168300F41822251810AF08F51840021519800820
:10169300F51840021519D2AF22C0D0251810AF0893
:1016A300F518500205198008F51850020519D2AF34
:1016B300D0D0222518F58210AF08F518400215196D
:1016C3008008F51840021519D2AF85198322251811
:1016D300F582E43519F58322E4732518C582C0E049
:1016E300E51934FFC583C0E0E518C3958224F810DB
:1016F300AF08858319858218800885831985821828
:10170300D2AFCEF0A3E520F0A37808E608F0A3DE7D
:10171300FAEFF0A3E58124FAF8E608F0A3E608F06F
:10172300A3E608F0A30808E608F0A3E608F0A3156B
:10173300811581D0E0FED0E0F8158115811581E88F
:10174300C0E0EEC0E0222518C582C0E0E51934FFF1
:10175300C583C0E0E518C3958224F910AF088583DB
:10176300198582188008858319858218D2AFCEF037
:10177300A3E520F0A37808E608F0A3DEFAEFF0A3D0
:10178300E58124FBF8E608F0A3E608F0A30808E6E1
:1017930008F0A3E608F0A315811581D0E0FED0E0A0
:1017A300F815811581E8C0E0EEC0E0228519838534
:1017B3001882E0A3FEE0A3F5207808E0A3F608DF93
:1017C300FAE0A3FFE0A3C0E0E0A3C0E0E0A3C0E031
:1017D300E0A3C0E0E0A3C0E010AF088582188583D2
:1017E300198008858218858319D2AFD083D08202ED
:1017F3000135851983851882E0A3FEE0A3F52078DF
:1018030008E0A3F608DFFAE0A3FFE0A3C0E0E0A34B
:10181300C0E0E0A3C0E0E0A3C0E010AF08858218F9
:101823008583198008858218858319D2AFD083D028
:101833008222C0D02518C582C0E0E51934FFC583D4
:10184300C0E0E518C3958224F310AF08858319859A
:1018530082188008858319858218D2AFC8F0A3E95E
:10186300F0A3EAF0A3EBF0A37908E709F0A3D8FA11
:10187300ECF0A3EDF0A3EEF0A3EFF0A3D0E0F0A320
:10188300D0E0F0A3D0E0F0A3E520F0A3E5F0F0A3CF
:1018930022851983851882E0C0E0A3E0F9A3E0FA6A
:1018A300A3E0FBA37808E0F608A3DFFAE0FCA3E0DB
:1018B300FDA3E0FEA3E0FFA3E0C0E0A3E0C0E0A33C
:1018C300E0F5D0A3E0F520A3E0A3F5F010AF088581
:1018D30083198582188008858319858218D2AFD031
:1018E30082D083D0E0F8D0E03274048006740280A2
:1018F300027401C0E0F4041216B6D0E012158C2273
:101903007404800474028000CCC0E0EDC0E0E518EC
:10191300C39CCCAD1950011D10AF068C188D1980D6
:10192300068C188D19D2AF121599D0E0FDD0E0FCCA
:1019330022D083D082E9C0E0E493A3C386F0C5F04C
:1019430095F0F908E493A386F0C5F095F0700BE4E5
:1019530093A3C3994005E9048002A3E475F002A4AC
:101963002582F582E5F03583F583D0E0F9E493A38E
:10197300C0E0E493C0E022D083D082ECC0E0EDC0AD
:10198300E0E493A3FCE493A3FDED4C600D1219C6B0
:10199300EC24FFFCED34FFFD80EFE493A3FCE49320
:1019A300A3FDED4C600D121A05EC24FFFCED34FF92
:1019B300FD80EFD0E0FDD0E0FCE493A3C0E0E4932E
:1019C300C0E022C0E0C3E4939608740193961840E4
:1019D3000FE4936670080874019366187000701919
:1019E300A3A3C3E49396087401939618A3A3400D8D
:1019F300D0E0D0E0D0E00219B6A3A3A3A3A3A3D061
:101A0300E022C0E0C0F088F0E49366700808740137
:101A13009366187000A8F0A3A3700BD0F0D0E0D0A9
:101A2300E0D0E00219B6A3A3D0F0D0E02274F512FF
:101A33001749EAFEEBFFEE2434F8EF3400F9880887
:101A43008909EE2435F582EF3400F583E0F8EE24BE
:101A530037F582EF3400F583E0F50AEC850AF0A44C
:101A6300FCAAF0850AF0EDA42AFDE82CF8E43DF980
:101A73007A257B001215FBEA850882850983F054D9
:101A830007F87401B800028004C333D8FCC0E0E057
:101A9300131313541FF8EE28F8EF3400F9E8245D0C
:101AA300F582E93400F583D0E0F8E0586008EE24CD
:101AB30034F582EF801EEE2436F582EF3400F58391
:101AC300E0F5F0EA84A8F0EE28F8EF3400F9E82412
:101AD30038F582E93400F583E0F97F040217F574E1
:101AE300F5121749EAFEEBFFEE2434F582EF3400DA
:101AF300F583E0C0E0EE2435F582EF3400F583D0C2
:101B0300E0F08E828F83A3A3A3A3A3A3A3C082C069
:101B1300838E828F83A3A3A3A3A3E0F8A3E0F9D0CA
:101B230083D082E0C398F508A3E099F509EE2480F9
:101B3300F582EF3400F583E064017069EE2481F5EA
:101B430082EF3400F583E0F8A3E0F98E828F83A35C
:101B5300A3A3A3A3A3A3E0FCA3E0FD8E828F83A38F
:101B6300A3A3A3A3E0FAA3E0FBC3EA9CEB9D502746
:101B7300C3EC98ED99402EC3EA98EB9950277CFD6E
:101B83007D04EEFAEFFB120B5BEE2480F582EF345B
:101B930000F583E4F0800EC3EA98EB9940E0C3ECD0
:101BA30098ED9950D9EE2434F8EF3400F9E8FCE9C4
:101BB300FDEE2435F582EF3400F583E0F8EE2437AB
:101BC300F582EF3400F583E0F50AE508850AF0A411
:101BD300F508AAF0850AF0E509A42AF509E825081D
:101BE300F8E43509F97A257B001215FBEA8C828D1E
:101BF30083F05407F87401B800028004C333D8FC9F
:101C0300C0E0E0131313541FF8EE28F8EF3400F983
:101C1300E8245DF582E93400F583D0E0F8E058600C
:101C230008EE2434F582EF801EEE2436F582EF347D
:101C330000F583E0F5F0EA84A8F0EE28F8EF34002D
:101C4300F9E82438F582E93400F583E0F91224DD5C
:101C5300021ADDC082C083851882851983E0F8A348
:101C6300E0F9C3EA9CEB9D5012C3EC98ED9940193F
:101C7300C3EA98EB99501279018010C3EA98EB9963
:101C830040F5C3EC98ED9950EE7900D083D08222D1
:101C9300EAC39CFAEB9DFB22008521878522C6229D
:101CA300C0E0C0D0E8C0E0E9C0E0EAC0E0EBC0E0DB
:101CB300ECC0E0EDC0E0C008C009C00AC00BC082A0
:101CC300C083C0F0759B00906182E0A2E6400302EE
:101CD3001D81E591A2E64003021D817591BF90032A
:101CE300C2E064057008120C93120C9F8003120C5F
:101CF30099752100120CF9E99003C3F07900120CD5
:101D0300ED120ACB7A017B009003C1E0F9120FBDFB
:101D1300907803E064426003021DCA90055FE014FB
:101D2300F06003021DCAC2AF121D2E00782AD0E054
:101D3300F618D0E0F6E59F5407F9700590844180CA
:101D43000390843D7808121556E9C4C0E07829E66B
:101D53005508F50808E65509F509740B78081216B5
:101D630064D0E02508F8906270E0A2E740F8E8C389
:101D730033906272F0906270E0D2E0F08049E0A2AA
:101D8300E55024E591A2E5501E7591DF9003C2E072
:101D9300640D70139003E4E004F064287002E4F02F
:101DA3007A00E0F9120D6B906181E0A2E35009E53E
:101DB300E9A2E3500375E9F7A3E0A2E75009E5912F
:101DC300A2E7500375917FD0F0D083D082D00BD09F
:101DD3000AD009D008D0E0FDD0E0FCD0E0FBD0E091
:101DE300FAD0E0F9D0E0F8D0D0D0E032C0E0C0D0F3
:101DF300C082C083906183E0A2E05009E5BFA2E006
:101E0300500375BFFEE0A2E15009E5BFA2E1500314
:101E130075BFFDE0A2E25009E5BFA2E2500375BF22
:101E2300FBE0A2E35009E5BFA2E3500375BFF7E06F
:101E3300A2E45009E5BFA2E4500375BFEFE0A2E5B9
:101E43005009E5BFA2E5500375BFDFE0A2E65009E4
:101E5300E5BFA2E6500375BFBFD083D0828088C0A0
:101E6300E0C0D0E8C0E0E9C0E0EAC0E0EBC0E0ECED
:101E7300C0E0EDC0E0C0F0E5A7A2E6500FE5A1A2E7
:101E8300E6500953A7BF75A1BF121EC7E5A7A2E578
:101E9300500CE5A1A2E5500653A7DF75A1DFE5A726
:101EA300A2E15009E5A1A2E1500375A1FDE5A7A2B6
:101EB300E2500CE5A1A2E2500653A7FB75A1FBD0AB
:101EC300F0021DD874F81217497521019003C2E07E
:101ED30064067015120C278A828B83A3A3A3A3A382
:101EE300A3E0FAA3E0FB120C81A2AFE433FED2AF6E
:101EF3009003C8E0640170187A207B009003C1E06E
:101F0300F91210477A207B009003C1E0F9120FC346
:101F1300906182E0D2E6F090055EE0602185C62202
:101F230080169003C7E064017008E5C654F84405C1
:101F3300F5C653BEFC121C9C7401652160E4EEA23D
:101F4300E092AF7F010217F5008E238F248582284C
:101F5300858327851882851983E0CEA3E0CF852862
:101F630082852783EBC9EAC8EDCBECCA75F010C3B1
:101F7300E833C8E933C9EA33CAEB33CBC3EA9EF586
:101F830026EB9FF525B35004AB25AA26EC33CCED05
:101F930033CDD5F0DAAE23AF242274EB1217497494
:101FA300FA1216868A088B098C148D159003C2E0E9
:101FB30024F7C3940550069084790220FF120C275E
:101FC3008A0A8B0BAE0AAF0BEE4F70030220FCACF8
:101FD30008AD09851882851983AA82AB83120CB1D7
:101FE3008E828F83A3A378081215569083E978080D
:101FF300121530851882851983780C121556908333
:10200300E9780C1215307808790C121368501F7890
:1020130008790C12150890840D780812138840472C
:10202300850810850911850A12850B138041850CDB
:1020330010850D11850E12850F137810790812156E
:102043000890840D7810121388501C7510007511B8
:10205300007512007513017810790C1215087810A9
:1020630079081214CF800890847978101215567469
:102073000978101214B090847D78081215567810E0
:1020830079081214278E828F83A3A3A3A3A3A3E0AB
:10209300F8A3E0F97AD07B031215FB88088909E4D9
:1020A300F50AF50B781079081214CF74041216D1BF
:1020B300E0F8A3E0F97AD07B031215FBE8FA8A086B
:1020C300E4F5097810790812136850077810790835
:1020D3001215089003C2E06408600AE06406600514
:1020E300E06405701C9084097810121388501290D4
:1020F300840578101214E280089083F17810121589
:102103005685148285158378101215657406121688
:102113009C7F0E0217F574F7121749120CC3900532
:102123005CE064017010906245E4F0A3F053F4F3B3
:1021330043FE0C5390F3120C6FE5C654804449F5EB
:10214300C6E59E547F644970F8906185740FF090E2
:10215300055AE0F47002A3E0604E90055BE060086E
:1021630014601B14602E80407508017509009005EA
:102173005AE07808121673E508F45280802A75082D
:102183000175090090055AE07808121673E508F402
:102193005290801475080175090090055AE078087B
:1021A300121673E508F452A079007F020217F57442
:1021B300F7121749E9FEEAFF74016E700C7A807B0F
:1021C300009003C1E0F9120FBD902550E493F46031
:1021D30008E493F9120ABF800953C680E59E547F31
:1021E30070FA120C7590055CE064017003120ADD4D
:1021F30090055AE0F47002A3E0604B90055BE06049
:102203000814601A14602C803D750801750900904C
:10221300055AE07808121673E5084280802875088D
:102223000175090090055AE07808121673E5084213
:1022330090801375080175090090055AE07808121B
:102243001673E50842A0120CC3120C278A088B09E7
:10225300A808A909E8496015E5E170FCE82414F52C
:1022630082E93400F583E0F46003E0F5E174016F83
:10227300700A7A019003C1E0F91210110221AD74C2
:10228300F11217498A088B098C0A8D0B740F1216E9
:10229300D1780C1215569083E97808121530908383
:1022A300E9780C1215307808790C121368501578F8
:1022B30008790C12150890840D78081213884015BC
:1022C30079018013780C790812150890840D780C25
:1022D30012138840EB79007F080217F574ED12178B
:1022E300498A088B098C0A8D0B74131216D1780C4A
:1022F3001215569083E978081215309083E9780C0B
:10230300121530780C790812136840117808790C8B
:10231300121508AA08AB09AC0AAD0B802275100090
:102323007511007512007513017810790C121508D8
:10233300781079081214CFAA10AB11AC12AD137F29
:102343000C0217F59083E978081215568A828B835D
:1023530078081215437F040217F574F51217498C98
:10236300828D8378081215568A828B83780812151A
:102373001CEA2404F8EB3400F98C828D83A3A3A315
:10238300A3E0FCA3E0FD88828983C3E09CF0A3E083
:102393009DF088828983C3E09420A3E0944E402279
:1023A30090844D78081215568A828B83780812140C
:1023B300F58A828B83A3A3A3A3E02420F0A3E034B4
:1023C3004EF0808074F5121749E9FE900514E0FA87
:1023D300A3E0FBEEC333F8E433F9740128F5827408
:1023E3008339F583E02AF508A3E03BF50978081261
:1023F30018F0908449121574121F4C740212169C23
:102403008A088B098C0A8D0B74107808121497AA0A
:1024130008AB097F040217F574F11217498A0C8B74
:102423000D8C0E8D0F740F1216D1E0FAA3E0FB741E
:10243300111216D1E0F508A3E0F50974131216D1B1
:10244300E0FEA3E0FF78081218F0EA2401F508EB98
:102453003400F509E4F50AF50B780C79081213A793
:102463009083FD7808121556780C79081213A7AAE1
:102473000CAB0DAC0EAD0F121F4C740212169C8BDD
:1024830009EA450960047A0180027A00EC2AFCED2E
:102493003400FDECF8EDF97A717B021215FB880824
:1024A3008909E4F50AF50B8E828F83780812156586
:1024B300ECF8EDF97A717B021215FB8A088B09742B
:1024C3000578081216738E828F83A3A3A3A3E5084E
:1024D300F0A3E509F07F080217F5C082C083E990F5
:1024E3006000F0D083D08222C0E074F2121835A2CB
:1024F300AFE433FED2AFE589A2E150031211917527
:102503008900C2C5751A00EEA2E092AF7F010218DE
:1025130094C0E074F2121835A2AFE433FED2AFE5F3
:102523008BA2E05003121191758B00C2E880D5C0D5
:10253300E0C0D0E8C0E0E5A8D2AFC2C7751A00A2D8
:0B254300E792AFD0E0F8D0D0D0E0323B
:10255000FFFFFFFFFFFFFFFFC082C0839061907409
:1025600004F0A37448F0A37402F09061807440F00A
:102570009061BC7403F09061877419F09062657487
:102580001BF090619C740DF090619A7433F0A37409
:1025900055F09061A0743AF090055CE06401700918
:1025A000C2919003C6746780059003C67461F09071
:1025B0002556E493906186F0902550E493F46027CB
:1025C000E493540FF8906185E0686012E5C654808A
:1025D0004449F5C6E59E547F644970F8E8F053C657
:1025E00080E59E547F70FA7905120D4D02279AC03E
:1025F00082C083E9540FF9906185E0696012E5C6F5
:1026000054804449F5C6E59E547F644970F8E9F06A
:1026100053C680E59E547F70FA02279AC082C08319
:10262000E5A8F853A87E906181E4F0A3F0A3F0C27E
:10263000BA539AFEC289759B00C2C275E9007591B2
:102640000075BF0075A91175B905906181F0A3747B
:10265000C0F0A3E4F0D2BA439A0174805842A802B1
:10266000279AC082C08374F81216869003C4E0F8DB
:10267000A3E0F9E84970030227909003C4E05440B6
:1026800060237908851882851983AA82AB83120B8F
:10269000B5851882851983AA82AB8312087F9003BF
:1026A000C4E054BFF0E054806010790C7A807B0560
:1026B000120BB59003C4E0547FF0E0A2E0503190DB
:1026C000619A7433F0A37455F09061A0743AF0905D
:1026D000055CE064017009C2919003C674678005CF
:1026E0009003C67461F01208859003C4E054FEF0B4
:1026F000E05402603190619A743FF0A3745AF090F4
:1027000061A0747FF090055CE064017009D2919043
:1027100003C6747180059003C6746AF01208859030
:1027200003C4E054FDF0E054046013902554E49396
:10273000906186F012088B9003C4E054FBF0E054E3
:10274000086013902555E493906186F012088B90F1
:1027500003C4E054F7F0E054106013902556E4935E
:10276000906186F012088B9003C4E054EFF0E054BF
:1027700020600A12088B9003C4E054DFF0A3E054F9
:1027800001600D120ADD1208919003C5E054FEF0BD
:10279000740812169C8003F0A3F0D083D08202014B
:1027A00035C082C083E9600814600A14600C80138D
:1027B00090255480089025558003902556E49390E9
:1027C0006186F080D574EC1216DD74F412168685DD
:1027D0001882851983AC82AD8375838475820174F8
:1027E0000412159990255493F460030229529078AD
:1027F00008E0C39402500302293274041216D1ACCB
:1028000082AD837583837582AA7408121599851821
:102810008285198385821285831374041216D1ACC4
:1028200082AD83750EFF750FFF7FFF7E00750C482C
:10283000750D78801574086E70030228C574096ED2
:1028400070030228C5740A6E607B850C82850D8337
:1028500078081215568C828D83A909E50AC9F88873
:102860001074187808121497E5104508F8C3E0981A
:10287000A3E099850C82850D8378081215564018BF
:102880008C828D8374187808121497E5104508F827
:10289000E0C398F8A3E0801C74187808121497E538
:1028A000104508FAE9FB8C828D83E0F8A3E0F9EA91
:1028B000C398F8EB99F9C3E8950EE9950F5006888F
:1028C0000E890FEEFF0EE50C2404F50CE50D340027
:1028D000F50DEEC39413500302283574FF650E7096
:1028E0000474FF650F60238F087402780812167352
:1028F00074482508F58274783509F583780812152F
:1029000056851282851383E508F0EC24020C0CED49
:102910003400FD851282851383A38582128583137B
:10292000740C1216D1E5826C7003E5836D600302AE
:10293000282375080175090078081218F07402122E
:1029400016D1AC82AD837A557B09121167740212DD
:10295000169C740C12169C7F0C0217AFC082C083A9
:102960009061AE7468F0A3746AF090624574FBF0F5
:10297000A304F053F4FD43FE0290055C7401F09053
:1029800061A0E0643A90619A70237433F0A37455A7
:10299000F09061A0743AF0740164017009C29190E2
:1029A00003C6746780289003C674618021743FF069
:1029B000A3745AF09061A0747FF0740164017009EF
:1029C000D2919003C6747180059003C6746A022781
:1029D000997F040217AFC082C08390050EE06401A6
:1029E000700A900513E06004790C800279000227D8
:1029F0009AC082C08375E1F1900511E060551460C2
:102A0000081460591460518059120AEF900507E0CC
:102A1000F97A087B05120CCF908451121574120DAF
:102A200005908431121574120CDB900512E0F91236
:102A30000CE77901120D41900505E02416F8A3E09A
:102A40003400F9888289837407F0A3740BF079004D
:102A500002279A120AF580B4120AFB80AF120B010A
:102A600080AA791280EA74F41216DD75D90D9004EB
:102A7000F6E0A2E0E4331313F8900507E0C4333323
:102A800054C0484401F5D97805790588828983A323
:102A9000A3A3E0F5D988828983A3A882A983E864E7
:102AA0000B7003E9640570E378F679048882898302
:102AB000A3E0F5D988828983A3A882A983E864FC6E
:102AC0007003E9640470E575E1959004F6E0F97A25
:102AD000F77B04120CD5900B4F7495F0A3740AF099
:102AE000A374FDF0A3740BF0A374FDF0A3740BF0BA
:102AF000A374FDF0A3740BF0A3749BF0A3740AF00D
:102B0000A374FDF0A3740BF0A374B3F0A3740AF0E4
:102B1000900B5D74FDF0A3740BF0A374FDF0A3742F
:102B20000BF0A374FDF0A3740BF0A374FDF0A37479
:102B30000BF0A374FDF0A3740BF0A374FDF0A37469
:102B40000BF0900505E0F8A3E0F5838882A3A37855
:102B50000812155690845578081214E29083E9788B
:102B600008121530900505E0240EF8A3E03400F9B2
:102B7000888289837808121565900505E02414F889
:102B8000A3E03400F9888289837413F09003C2743F
:102B900002F00229D1C082C083900517E02407F516
:102BA000D9900507E0C4333354C0F5D978057905C9
:102BB00088828983A3A3A3E0F5D988828983A3A807
:102BC00082A983E8640B7003E9640570E39005173C
:102BD000E0601F78057905FAE82413F582E93400EE
:102BE000F583E0F5D988828983A3A882A9831AEAAC
:102BF00070E6900537E02407F5D9900507E0C43367
:102C00003354C04404F5D97805790588828983A3B3
:102C1000A3A3E0F5D988828983A3A882A983E86465
:102C20000B7003E9640570E3900537E0601F7805D9
:102C30007905FAE82433F582E93400F583E0F5D923
:102C400088828983A3A882A9831AEA70E675E19530
:102C5000900B4F74A1F0A3740AF0A374FDF0A37459
:102C60000BF0A374FDF0A3740BF0A374FDF0A37438
:102C70000BF0A3749BF0A3740AF0A374FDF0A3748B
:102C80000BF0A374B3F0A3740AF0900B5D74FDF025
:102C9000A3740BF0A374FDF0A3740BF0A374FDF008
:102CA000A3740BF0A374FDF0A3740BF0A374FDF0F8
:102CB000A3740BF0A374FDF0A3740BF090844D1279
:102CC0001574900505E0240EF8A3E03400F988821D
:102CD0008983121580900505E02414F8A3E03400E0
:102CE000F9888289837412F09003C27401022799D3
:102CF000C082C083900517E02407F5D9900507E04E
:102D0000C4333354C04402F5D978057905888289E3
:102D100083A3A3A3E0F5D988828983A3A882A9838A
:102D2000E8640B7003E9640570E3900517E0601F29
:102D300078057905FAE82413F582E93400F583E093
:102D4000F5D988828983A3A882A9831AEA70E675D7
:102D5000E195900B4F74ADF0A3740AF0A374ADF03D
:102D6000A3740AF0A374ADF0A3740AF0A374ADF0D9
:102D7000A3740AF0A374ADF0A3740AF0A374ADF0C9
:102D8000A3740AF0A374B3F0A3740AF0900B5D74FB
:102D9000FDF0A3740BF0A374FDF0A3740BF0A37407
:102DA000FDF0A3740BF0A374FDF0A3740BF0A374F7
:102DB000FDF0A3740BF0A374FDF0A3740BF09084EA
:102DC0004D121574900505E0240EF8A3E03400F9C7
:102DD00088828983121580900505E02414F8A3E009
:102DE0003400F9888289837414F09003C274040259
:102DF0002799C082C083900517E02407F5D9900574
:102E000007E0C4333354C04406F5D9780579058802
:102E1000828983A3A3A3E0F5D988828983A3A882AA
:102E2000A983E8640B7003E9640570E3900517E07B
:102E3000601F78057905FAE82413F582E93400F576
:102E400083E0F5D988828983A3A882A9831AEA70CE
:102E5000E6900537E02407F5D9900507E0C4333341
:102E600054C04404F5D97805790588828983A3A3E1
:102E7000A3E0F5D988828983A3A882A983E8640B9B
:102E80007003E9640570E3900537E0601F78057909
:102E900005FAE82433F582E93400F583E0F5D988B2
:102EA000828983A3A882A9831AEA70E675E19590C6
:102EB0000B4F74A7F0A3740AF0A374FDF0A3740B76
:102EC000F0A374FDF0A3740BF0A374FDF0A3740BD6
:102ED000F0A374FDF0A3740BF0A374FDF0A3740BC6
:102EE000F0A374B3F0A3740AF0900B5D74FDF0A32B
:102EF000740BF0A374FDF0A3740BF0A374FDF0A3A6
:102F0000740BF0A374FDF0A3740BF0A374FDF0A395
:102F1000740BF0A374FDF0A3740BF090844D1215A4
:102F200074900505E0240EF8A3E03400F988828946
:102F300083121580900505E02414F8A3E03400F90D
:102F4000888289837415F09003C27403022799C0A4
:102F500082C083900505E0F8A3E0F5838882A3A3EF
:102F6000A3A3A3A3E402279774F71216DD9003F03E
:102F7000E0F875F004A4C8AAF02AF974F228F874ED
:102F80000339F9E82405FAE93400FB8A828B83E0EF
:102F9000FCA3E0FD88828983A3A3A3A3A3A3A3A387
:102FA000A3ECF0A3EDF088828983A3A3A3A3A3A33A
:102FB000A3E024FFF8A3E034FFF98A828B83E8F0D2
:102FC000A3E902320D74F71216DDEAFEEBFF906101
:102FD000D0E060030230A275D90E75D90375D9040B
:102FE000EE248CF582EF3400F583E5822408F8E5C1
:102FF000833400F9E0F5D9A3E865827003E96583BD
:1030000070F2EE2484F582EF3400F583E582240427
:10301000F8E5833400F9E0F5D9A3E865827003E9A7
:10302000658370F275E1957908EE248CFAEF34002F
:10303000FB120BA97904EE2484FAEF3400FB120B87
:10304000A97C00EEF8EFF9ECFAC3E49AFA95E0FBFC
:10305000EE2AFAEF3BFBEA248BF582EB3400F58392
:10306000E0C0E0E824ABF582E93400F583D0E0F07D
:103070000C88828983A3A882A983ECC3940840C7E3
:10308000EE2470F582EF3400F583E0F8A3E0F9EE6A
:103090002472F582EF3400F583E8F0A3E9F07901BA
:1030A0008002790002320EC082C08375D90275D9C0
:1030B0000375D90575E195EA2470F582EB3400F5C6
:1030C00083E0F8A3E0F9EA2472F582EB3400F5839B
:1030D000E8F0A3E9F0790102279A74F61216DDEA06
:1030E000FEEBFF9005607406F075086075090578C1
:1030F000081218F07C017903120BF1740212169C6D
:1031000075D90675D903758260758305E0F5D9A375
:10311000E58264657004E583640570F075E195905F
:1031200003C2E06408701EEE2470F582EF3400F5EF
:1031300083E0F8A3E0F9EE2472F582EF3400F58322
:10314000E8F0A3E9F079010232DA74F61216DDEA4A
:10315000FEEBFF9061D0E070667801900560740B23
:10316000F09003C2E064077019750860750905786E
:10317000081218F07C017903120BF1740212169CEC
:103180007805740128F5D975D903758260758305B2
:10319000E8FAE0F5D9A31AEA70F875E195EE247023
:1031A000F582EF3400F583E0F8A3E0F9EE2472F540
:1031B00082EF3400F583E8F0A3E9F0790180027929
:1031C000000232DA74F71216DDEAFEEBFF75D9035E
:1031D00075D90375D90DEE24DEF582EF3400F58341
:1031E000E0F5D975E1957904120D0BEE2470F582A6
:1031F000EF3400F583E0F8A3E0F9EE2472F582EFF6
:103200003400F583E8F0A3E9F079018001F07F0153
:103210000217AF74F61216DDEAFEEBFF9061D0E004
:10322000F87480C398FAEE2483F582EF3400F583B6
:10323000E06004780480027800E8240BF8EAC39880
:1032400050030232D87D09900560EDF0EE24E3F8DA
:10325000EF3400F97A617B057C0888828983E08AF3
:10326000828B83F088828983A3A882A9838A828B38
:1032700083A3AA82AB831CEC70E0EE2483F582EF7B
:103280003400F583E0601D75086075090578081243
:1032900018F07C097903EEFAEFFB120BF1740212BD
:1032A000169C7D0D74012DF5D975D9037582607555
:1032B00083058D08E0F5D9A31508E50870F675E1DA
:1032C000957904120D0BEE241DF582EF3400F58381
:1032D000E4F0A3F07901800279007F020217AF7455
:1032E000F61216DDEAFEEBFF9061D0E0F87480C3C1
:1032F00098FAEE2483F582EF3400F583E0600478D9
:103300000480027800E82408F8EAC39850030233E6
:10331000DF7D06900560740CF09003DFE09005619E
:10332000F07AE07B03786279057C028A828B83E005
:1033300088828983F08A828B83A3AA82AB83888266
:103340008983A3A882A9831CEC70E07AE27B037CCA
:10335000028A828B83E088828983F08A828B83A3AE
:10336000AA82AB8388828983A3A882A9831CEC707C
:10337000E0EE2483F582EF3400F583E0601D7508EC
:103380006075090578081218F07C067903EEFAEFEB
:10339000FB120BF1740212169C7D0A74012DF5D9F3
:1033A00075D9037582607583058D08E0F5D9A3157D
:1033B00008E50870F675E1957904120D0BEE24709E
:1033C000F582EF3400F583E0F8A3E0F9EE2472F51E
:1033D00082EF3400F583E8F0A3E9F0790180027907
:1033E000000232DA74F61216DDEAFEEBFF9061D0CD
:1033F000E0F87480C398FAEE2483F582EF3400F588
:1034000083E06004780480027800E82404F8EAC3CA
:103410009850030234BE7802900560E8F0EE24F57F
:10342000F582EF3400F583E0900561F0EE2483F53A
:1034300082EF3400F583E0601B750860750905783C
:10344000081218F07C027903EEFA120BF1740212E2
:10345000169C7806740128F5D975D90375826075B4
:1034600083058808E0F5D9A31508E50870F675E12D
:1034700095EE2474F582EF3400F583E4F0EE2480B9
:10348000F582EF3400F583E4F0EE241DF582EF348D
:1034900000F583E4F0A3F07904120D0BEE240DF592
:1034A00082EF3400F583E0F8A3E0F9EE2472F582B0
:1034B000EF3400F583E8F0A3E9F0790180027900A8
:1034C0000232DA74F61216DD9061D0E0F87480C32F
:1034D00098FCEA2483F582EB3400F583E0600478FD
:1034E0000480027800E82404F8ECC398405B790279
:1034F0009005607407F0EA24F6F582EB3400F5835A
:10350000E0900561F0EA2483F582EB3400F583E076
:10351000601875086075090578081218F07C0209B2
:10352000120BF1740212169C7906740129F5D975F3
:10353000D903758260758305E9F8E0F5D9A318E829
:1035400070F875E1957901800279000232DA74F53C
:103550001216DDE9FCA2AFE433F50AC2AF7D0080AC
:10356000010DEA246FF582EB3400F583E0F8EDC33A
:1035700098501A8D08EA2508F8EB3400F9E8246B16
:10358000F582E93400F583E06C70D68024EA246F7C
:10359000F8EB3400F9E0FEEA2EFAEB3400FBEA2403
:1035A0006BF582EB3400F583ECF088828983E004CC
:1035B000F0E50AA2E092AF7F030217AF74F612168D
:1035C000DDA2AFE433FDC2AFEA246FF582EB340035
:1035D000F583E014F07C0060368C08EA2508F8EBEF
:1035E0003400F9E8246CF582E93400F583E0C0E0AA
:1035F000E8246BF582E93400F583D0E0F00CEA248E
:103600006FF582EB3400F583E0F8ECC39840CAEA2A
:10361000246EF582EB3400F58374FFF0EA246AF53A
:1036200082EB3400F583E4F0EDA2E092AF0232DAEF
:10363000C082C083E5A8F8C2AFEA246BF582EB3400
:1036400000F583E9F0EA246AF582EB3400F583E4BF
:10365000F0E8A2E792AF02279A74F31216DDEAFEB1
:10366000EBFFECFAEDFB8A828B83A3A3A3A3E054C8
:103670001FF0EE2436F582EF3400F583E4F0F50A0E
:10368000EEFCEFFD8A828B83E0C0E0EC245DF582E6
:10369000ED3400F583D0E0F0750B00E50A333333E9
:1036A00054F8F50C8A828B83E0F508750900E50B68
:1036B0007808121654E508A2E0502FEE2436F8EFF1
:1036C0003400F988828983E0F508EE2508F508EFD3
:1036D0003400F509E5082438F582E5093400F5835E
:1036E000E50CF088828983E004F0050B050CE50BFE
:1036F000C3940840AF050A8A828B83A3AA82AB8356
:103700008C828D83A3AC82AD83E50AC394055003FC
:103710000236847F050217AF74F71216DD9003EEB0
:10372000E0640170077A007B0002388F7E0090030E
:10373000F4E070F17401F0A3E4F0A3F090045404F9
:10374000F0900457E4F0A3F090045A04F09003F7CB
:10375000E4F0A3F0A3F0A3F090040104F090042798
:10376000E4F09083F112157490040A12158090040D
:103770000EE4F0A3F0A3F0900472F0900466F090D1
:10378000045B7480F0A3E4F0900461F0900459F0BD
:103790009004DDF0A3F0A3F0A3F0A3F0A3F0A3F056
:1037A000A3F09004E6F0900475F09004C5F0A3F047
:1037B0009083F11215749004C71215809083F11252
:1037C00015749004CB1215809004D1E4F09004D3CA
:1037D000F09004CFF09004E9F0A3F0A3F0A3F0A3DD
:1037E000F0A3F0A3F0A3F078EE7903E8246FF5825C
:1037F000E93400F58374FFF00E88828983A3A882E0
:10380000A983EEC3940440E37AEE7B0378FD790448
:1038100088828983E0C0E0EA2461F582EB3400F518
:1038200083D0E0F088828983A3A882A9838A828BCF
:1038300083A3AA82AB83E864027003E9640570D0B5
:103840007AEE7B0378D5790388828983A3E0C0E090
:10385000EA24E7F582EB3400F583D0E0F088828932
:1038600083A3A882A9838A828B83A3AA82AB83E8DD
:1038700064DD7003E9640370CF9003EEE004F0644C
:103880000170089003F6E09003F0F07AF27B0302F7
:10389000320EC082C0839003F5E4F09003F4F09000
:1038A00003EEF0A3F0A374FFF075E1F102279AC0D4
:1038B00082C083780079009003F5E0600478F279A3
:1038C0000388828983A3A3A3A3E0F902279A74F64D
:1038D0001216DDEAFEEBFF8E828F83A3A3A3E060C6
:1038E0000F8E828F83A3A3A3E4F09003EFE014F084
:1038F0009003EEE014F070069003F074FFF08E82F7
:103900008F83A3A3E4F0900502E0700D9003EFE035
:10391000640170057900120CEDEE2465F582EF3438
:1039200000F583E0F8A3E0F9E8496029EE2465F8A2
:10393000EF3400F9880889098882F583E0FCA3E068
:10394000FD9003F0E0FA7B001208B5850882850936
:1039500083E4F0A3F0EEFAEFFB120C210232DA74EA
:10396000F71216DDEAFEEBFF8E828F83A3A3A3A3DB
:10397000E0FA7B001208F7EEFAEFFB120B73120C61
:103980000902320EC082C08378D579038882898388
:10399000A3E4F088828983A3A882A983E864DD7008
:1039A00003E9640370E69003D6022CEB74F612165A
:1039B000DDEAFEEBFFEC2403F8ED3400F98808891A
:1039C00009EC2407F8ED3400F9E8FCE9FD8C828D60
:1039D00083E0F8A3E0F9850882850983E0FAA3E093
:1039E000FB1215FBEE240DF582EF3400F583E8F0B1
:1039F000A3E9F08C828D83E0F8A3E0F98508828545
:103A00000983E0FAA3E0FB1215FB8B09EA45096084
:103A100013EE240DF582EF3400F583E02401F0A3CA
:103A2000E03400F00232DA74F61216DDEAFEEBFF43
:103A3000EE242EF582EF3400F583E0FCA3E0FD7860
:103A40000079FAECFAEDFB1215FBEE2470F582EF2B
:103A50003400F583E8F0A3E9F0780079FAECFAEDA8
:103A6000FB1215FB8B09EA45096013EE2470F58201
:103A7000EF3400F583E02401F0A3E03400F00232DB
:103A8000DA74F01216DDEAFEEBFF74101216D1782C
:103A900008121556120CAB8A0C8B0D8C0E8D0F90E4
:103AA0008445780C1214E29083E9780C1215307872
:103AB0000C1218EC8E828F83E0F8A3E0F5838882E5
:103AC000A3A3121574122282740412169CE96003D7
:103AD000023BCE8E828F83E02402F8A3E03400F90B
:103AE000E8FAE9FB8A828B8378081214F59083E95F
:103AF00078081215568A828B837808121543EE24B3
:103B00000BF582EF3400F583C082C0838E828F83F1
:103B1000A3A3A3A3A3E02401F8A3E03400F9D08376
:103B2000D082E0687003A3E06970057901023BD0A0
:103B30008E828F83A3A3A3A3A3A3A3E02401F0A356
:103B4000E03400F0EE2474F582EF3400F583E06495
:103B5000017036EE2475F582EF3400F583E0F8A3AA
:103B6000E0F98E828F83A3A3A3A3A3A3A3E068702D
:103B700003A3E0697013EE2475F582EF3400F5833A
:103B8000E02401F0A3E03400F0EE2480F582EF346D
:103B900000F583E064017036EE2481F582EF340095
:103BA000F583E0F8A3E0F98E828F83A3A3A3A3A3F8
:103BB000A3A3E0687003A3E0697013EE2481F5828B
:103BC000EF3400F583E02401F0A3E03400F0790045
:103BD0007F080217AF74F71216DD9003F0E0F87556
:103BE000F004A4C8AAF02AF974F228FE740339FF7D
:103BF0008028EE2465F8EF3400F988828983E0FCA0
:103C0000A3E0FD88828983E4F0A3F08E828F83A3F2
:103C1000A3A3A3E0FA7B001208B5EE2465F582EFBA
:103C20003400F583E0F8A3E0F9E849604FEE24643E
:103C3000F582EF3400F583E0F50878081218F4EE09
:103C40002463F582EF3400F583E0F9EE2465F58214
:103C5000EF3400F583E0FCA3E0FDEEFAEFFB120B7E
:103C60009D740112169CE96089EE2465F582EF349B
:103C700000F583E0F8A3E0F9E84970137C007D00CB
:103C80008E828F83A3A3A3A3E0FA7B001208B50260
:103C9000320E74F21216DDEAFEEBFF890A740E1280
:103CA00016D1E0FAEE2462F582EF3400F583E06489
:103CB000016003023D5E9061D0E0F87480C398F526
:103CC0000CEE2483F582EF3400F583E06004780481
:103CD000800278008908E928F8E43400F9E8240231
:103CE0000808E93400F9E50C98E499A2D265D033CC
:103CF0004068EA7005750B028003750B01E06039BE
:103D000075090078081218F07A607B05120BD374DD
:103D10000212169C75086075090578081218F0AC37
:103D20000AA90BEEFAEFFB120BF1740212169C7447
:103D300004250AF50A7C607D057401250AF5D985FC
:103D40000BD9E50A600D8C828D83F8E0F5D9A318B4
:103D5000E870F875E195790080067907800279FFAF
:103D60007F060217AFC082C083E960208C828D83FA
:103D7000E08A828B83F08C828D83A3AC82AD838AB0
:103D8000828B83A3AA82AB8319E970E0ECFAEDFB86
:103D900002279AC082C083E9900B2DF0023FB274D3
:103DA000F71216DDE99002E0F07C187D037AFF7BC4
:103DB000FF1207EF9002E174FFF0A3F0A3E4F0A379
:103DC000F0790512077D9002E0E0F91206A57A0766
:103DD0007B081209CF024CC074F41216DD8A088BDE
:103DE00009EB548060309002E0E0F9120FA58A0AD6
:103DF0008B0BAE0AAF0BEE4F60138E828F83E064A5
:103E0000B0700312078FEEFAEFFB120F93AA08E5CA
:103E1000096480FB80047A007B00023F8174F21207
:103E200016DD74FC121686EAFEEBFF74121216D130
:103E30001251A7EE4F7003023EC074021216D1EE6B
:103E4000F0A3EF1241BCECF0A3ED1241BCAA82AB8F
:103E50008312069FE9F50A706AE508450960648ED9
:103E6000828F8312518DEE4F60567A067B00120FBF
:103E7000F98A0C8B0DA80CA90DE8497005750A1379
:103E8000804188828983E4123ECDEEF0A3EF125187
:103E9000B8E508F0A3E509F09002E6123F5490025D
:103EA000E67005124C6A801B124C588003EAFCEB4A
:103EB000FD8C828D83123F5470F38C828D8380E35E
:103EC000750A02A90A740412169C0253A7F0A312E1
:103ED000515EA32274F21216DD890AE975F017A467
:103EE000FEAFF09002E5E4F09002E3123F54600A66
:103EF000120FFF9002E3E4F0A3F0EEFAEFFB120FD3
:103F0000F98A088B09EA4509602FEEFCEFFD79007C
:103F1000120F819002E3E508F0A3E509F07B008031
:103F200008123F3EE4F0A3F00BEBC3950A40F2E524
:103F30000A9002E5F07900800279130253A7EB752D
:103F4000F017A4F8A9F09002E3E028FAA3E0398A78
:103F500082F583221248FCEA4B2274F41216DD79B2
:103F600000EAA2E0501B7508D07509837808121882
:103F7000F07C047D007A2F7B0B12077774021216F7
:103F80009C7F040217AFC082C0839002E6123FB943
:103F9000601C88828983A3A3E06A7003A3E06B8816
:103FA00082898370E8A3A3A3A31248F880047A004F
:103FB0007B00D083D08202013512548DE8492274EF
:103FC000EE1216DD74FC121686EAFEEBFF851882EF
:103FD000851983E4F0A3F0EE2402124C4AEE240586
:103FE000125165EE2404F50EEF124571E024FE60D7
:103FF0003924FC604624FE605224FE605E24FE707C
:10400000030240D224FE700302413624FE700302F4
:10401000414524FE700302415424FC7003024163B5
:1040200024FE70030241720241AF9002FF7417F048
:10403000A3E41241C412041D0241AF851882851900
:1040400083AC82AD8312079502417F851882851962
:1040500083AC82AD8312079B02417F850C08850DDE
:104060000974021216D1AC82AD838508828509835A
:104070001248F81206C38A0C8B0DAC0CAD0DEC4D3A
:10408000603BE4F50CF50D780C1218F0750CFF751B
:104090000D02780C1218F0750C00750D03780C12D7
:1040A00018F074081216D11219071254B112169C86
:1040B000E9F50C700B1248EE120435800F750C01F7
:1040C0008508828509831241B2124C6A850C080268
:1040D000418274021216D1AC82AD83850C82850DAB
:1040E000831246C3603C850C82850D83A3A31219FD
:1040F000077510FF75110278101218F07510007511
:10410000110378101218F074081216D11219071240
:1041100054B112169CE9F509700B1248EE12043BDB
:10412000800F750901850C82850D831241B2124CF6
:104130006A850908804C851882851983AC82AD8315
:104140001207A1803A851882851983AC82AD83124B
:1041500007A7802B851882851983AC82AD8312074F
:10416000AD801C851882851983AC82AD831207B39C
:10417000800D851882851983AC82AD831207B9E959
:10418000F508E50860298E828F83A3E06414601F20
:10419000850E82850F83E09002FF1241BC12548984
:1041A000900300124C6AE508A31241C412041702DE
:1041B0004B5912548D85188285198322F0851882F7
:1041C00085198322F07CFF7D02850A82850B83128C
:1041D00048FC2274EE1216DD74FC1216868A0A8BD5
:1041E0000B8C0E8D0FEA2405F508EB3400F5097CE5
:1041F000157D0079007AFF7B02120F81E508240209
:10420000F50CE5091251688518828519838582109D
:1042100085831178101218F0850882850983A3A37D
:10422000A3A31246BA1218F0E5082405F510E50913
:104230003400F51178101218F0850C82850D831268
:104240004A0F1206BD740612169C8A108B11AE100E
:10425000AF11E50A2402F50AE50B124C4DEE4F7042
:1042600003024391801774021216D11248F8888213
:104270008983EAF0A3EBF09002FFE004F09002FFE4
:10428000E0C394054003024391E4F510F511781062
:104290001218F07510E875110278101218F07510E8
:1042A000E975110278101218F074061216D112195D
:1042B000077910EEFCEFFD1254B312169CE9705E04
:1042C000850882850983A3A3A3A3A3A3A3E0F890F1
:1042D00002E8E06870481246BA1218F07CE97D02E4
:1042E000E5082408FAE5093400FB120F7B7402127A
:1042F000169CE960298E828F83A3A3A3A31248F89A
:104300009002FFE0F5107402781012167374002505
:1043100010F58274033511F583EAF0A3EBF0740213
:104320001216D185821085831178101218F074024C
:104330001216D1121907850C82850D8312491E129F
:10434000169C8A108B11AE10AF119002FFE0F51091
:104350007511007402781012167374FF2510F8742A
:10436000023511F988828983A3123F5470030242F7
:104370005DE82403080808E93400F9EE4F60030201
:1043800042668882898374FFF0A3F09002FFE00404
:10439000F09002FFE0600A1248EE120429790080D2
:1043A0000B850882850983124C61790A024B597486
:1043B000EA1216DD74FE1216868C128D13EA24059D
:1043C000F50CEB12549B125191750800750900EA27
:1043D0002402F510EB3400F51185188285198385C8
:1043E000820A85830B780A1218F0850C82850D836A
:1043F000A3A3A3A31245871218F0E50C2405F50A20
:10440000E50D124C4D780A1218F0850C82850D834B
:1044100012458B1206BD740612169C8A0A8B0BEA93
:10442000450B700302452CEA2404F50EEB1245718E
:104430001251918A828B83A3A3A3E0F98510828510
:104440001183124902600302452CE4F514F5157836
:10445000141218F07514E875150278141218F07516
:1044600014E975150278141218F074061216D11298
:1044700019077913AC0AAD0B85108285118312548C
:10448000B912169CE9F509600302452C9002E8E098
:10449000F8E5087009E02402900300F0801490030E
:1044A00000E0FCE82402FAE43400FBEA6C7001EB63
:1044B000707E850882AA821246B194141246A950D1
:1044C0006B850E82850F83E0C0E074012A12456877
:1044D000D0E0F00508850E82850F83A3E0C0E0855B
:1044E000080A7401250A124568D0E0F00508900218
:1044F000E81245871218F07CE97D0285080A7401EC
:10450000250A12457B12169C9002E8E02508F50862
:1045100074FF6E700374FF6F6012EE24010EEF34AF
:1045200000FFE508C3941450030243D9E508601363
:1045300012490C8510828511831248F812042F79D4
:10454000008014E509700375090A851282851383BA
:10455000EEF0A3EFF0A909740212169C7F0E021769
:10456000AF85080C7401250CF58274033400F583C3
:10457000223400F50F850E82F58322FA740334008D
:10458000FB120F697402221251C722A3A312459194
:1045900022124C58FDEEFAEFFB2274EE1216DD7477
:1045A000FE1216868C0E8D0FEA2405F50CEB1251C7
:1045B00068750B009002FFE4F0F50AEA2402F508A2
:1045C000EB3400F50980449002FFE0FA9002E8E045
:1045D000F81246B194171246A9400D9002FFE0F878
:1045E0007416C3989002E8F01246BA1218F07CE9EB
:1045F0007D0274002AFA740312457E12169C900202
:10460000E8E0F89002FFE028F0050AE50C2416F532
:1046100082E50D12456CE0F8E50AC39850749002EB
:10462000FFE0C39416506BE50AC333F8E433F9E5B1
:104630000C28FEE50D39FF851882851983AC82AD03
:10464000838E828F831246C37008750B01124C5DF6
:104650008050E4F510F51178101218F07510E87517
:10466000110278101218F07510E975110278101205
:1046700018F074061216D11219077916850882856A
:1046800009831254B912169CE9F50B70030245C751
:1046900080BB7CFF7D028508828509831248F81261
:1046A0000441A90B7402024B5BE99400C365D0334B
:1046B00022EA28F8E43400F9E822E0F51075110048
:1046C000781022124B508A108B11AC10AD11EC4DAA
:1046D0002274EA1216DD74FC1216868A0C8B0D8C7D
:1046E000128D13EA2405F50AEB124C4D750800757E
:1046F0000900E50A2402F510E50B3400F5117402F7
:104700001216D185820E85830F780E1218F0850A55
:1047100082850B83A3A3A3A312516D1218F0E50A9F
:104720002405F50EE50B3400F50F780E1218F08510
:104730001082851183124C531248F21206BD740682
:1047400012169C8A0E8B0FAE0EAF0FE50C2402F5ED
:104750000EE50D3400F50F80388882898374FFF0F0
:10476000050812456174FFF005089002E8E0F50CB9
:10477000750D00780C1218F07CE97D0285080C7428
:1047800001250C12457B12169C9002E8E02508F5E5
:1047900008EE4F60278E828F83A3A3A3E0F9850ED6
:1047A00082850F83124902EE2404125165E96027C5
:1047B000850C82850D831248E4124C6AE50870036B
:1047C0000248CA12490C850E82850F831248F812DE
:1047D000044779000248DFE4F514F515781412183F
:1047E000F07514E875150278141218F07514E9754F
:1047F000150278141218F074081216D112190779DC
:1048000011EEFCEFFD850E82850F831254B912164E
:104810009CE9F509709A850882AA82EA9002E870FC
:1048200009E02404900300F08025E0F8900300E004
:10483000F514E82404FCE43400FDEC65147001ED8B
:1048400070811246B194121246A940030247C385F3
:104850000C82850D83E0C0E074012A124568D0E027
:10486000F00508850C82850D83A3E0C0E012456148
:10487000D0E012492785820C85830D780C1218F040
:1048800074041216D11219078510828511831249FA
:104890001E12169C8A0C8B0DAE0CAF0D85080C7485
:1048A00001250CF874033400F9EE4F7003024759E8
:1048B000851882851983E088828983124927A3E0BD
:1048C000C0E0124561D0E0024767E5097003750951
:1048D0000A850A82850B831248E4124C6AA909747E
:1048E0000402455912548D851282851383227CFF60
:1048F0007D02850A82850B831248FC22E0FAA3E040
:10490000FB221248FC1206ABE9F50922900300E0F5
:10491000F5F0E508849002FFF07CFF7D022212454D
:10492000911206C9740422F005088518828519833E
:104930002274EC1216DD74FE1216868A088B098C1E
:104940000E8D0FEA2405FEEB3400FF124B3AEE24E5
:1049500018125165EA450B70030249DD124B2350D2
:1049600029124A028A108B11EA4511606B7912AC48
:104970000AAD0B8508828509831248F88510828567
:1049800011831216DBE9F50A7058E4F50AF50B7885
:104990000A1218F08E828F83A3A3E0F50A780A1218
:1049A00018F0EE2403124C4A780A1218F08E828F07
:1049B00083124A0F1207DD740612169CE9F50A707D
:1049C00021850C82850D83E0701F8508828509830F
:1049D0001248F812044D8011750A0E8009750A01FB
:1049E0008004E50A6003124C5D850C82850D83E02E
:1049F000600479008002A90A740212169C7F0C02DE
:104A000017AF8518828519831248FC1207CB221232
:104A10004C58FD8508828509831248FC2274EE12E9
:104A200016DD74FE1216868A088B098C0C8D0DEA31
:104A30002405FEEB3400FF750E00124B3AEA450BDD
:104A40007003024B01124B23502C124A028A0E8B28
:104A50000FEA450F604A7912AC0AAD0B85088285D2
:104A600009831248F8850E82850F831216DBE9F55B
:104A70000E6003024B04850882850983124D3FAA0C
:104A80000AFB124B1570147AFF7BFF124B15606CFA
:104A900088828983E50AF0A3E50BF0750A00800798
:104AA000750E0E805F050A9002E5E0FAE50AC39AEA
:104AB000504AE50A75F017A4FAABF088828983A3FF
:104AC000A3E02AFAA3E03BFB8A828B83124C53ECCF
:104AD0004D70D2750A17750B00780A1218F0EEFCAB
:104AE000EFFD120F69740212169CEEFCEFFD8508B3
:104AF000828509831248F81204538014750E0980C8
:104B000003750E01125485850C82850D83124C6A43
:104B1000A90E0246A41207BF8A108B11A810A91172
:104B2000E84922E5082402F508E5093400F5098A78
:104B3000828B83A3A3A3E0A2E52285188285198333
:104B4000AC82AD838E828F83124B508A0A8B0B22EC
:104B5000E0FAA3E0FB1206C322740412169C7F0A3B
:104B60000217AF74EC1216DD8C108D11EA2405F5D6
:104B70000CEB125168750F00EA2402F50AEB124C97
:104B80004D850A82F5831248F812553F7003024C96
:104B90003F750E008071850C82850D83E064017085
:104BA0004F8E828F83A3A31219078E828F83A3A3B4
:104BB000A3A3E0F51275130078121218F0EE240585
:104BC000F512EF3400F51378121218F01248F212B1
:104BD00007DD740612169CE9F50F6014850C8285BA
:104BE0000D83E4F0125485851082851183124C6A7E
:104BF0007C177D007900EEFAEFFB120F818E828F19
:104C000083E4F0A3F0050E9002E5E0F8E50EC3980A
:104C1000501EE50E75F017A4F8A9F08508828509E5
:104C200083A3A31254A5124C53EC4D6003024B9680
:104C300085088285098374FFF0A3F0E50F700612E2
:104C400048F2120459A90F0249FDF50AEF3400F5A4
:104C50000B22A3124C58FD22E0FCA3E0228E828F8F
:104C60008312548D850E82850F83E8F0A3E9F0222C
:104C7000C082C0839002E1E06A7003A3E06B70061B
:104C80007AE17B0280047A007B00023FB274F71263
:104C900016DD7F00EF75F003A4F8A9F0EC28F8ED1D
:104CA00039F988828983E06A7003A3E06B7006E8B3
:104CB000FAE9FB800B0FEFC3940240D87A007B0027
:104CC0007F010217AF74F61216DD12527670067A63
:104CD000007B008007A3A3A3A31248F802533774F4
:104CE000F21216DDE9FE740E1216D1124D3F741049
:104CF0001216D11251A78C828D83E06402703BA3FF
:104D000012548988828983E0F50CA3E0F9A80C7419
:104D1000026870037429697021750C02750D0078A2
:104D20000C1218F078081218F0780A1218F0EEF940
:104D3000120801740612169C800279010253A7E042
:104D4000F50AA3E0F50B2274E81216DD74FB1216C7
:104D500086E9851882851983F08A168B178C0E8D4B
:104D60000F741F1216D11251A774211216D1124DB1
:104D70003F74231216D11251917510008C828D83CD
:104D8000A3A3A3E0A2E4502A741D1216D1124A086C
:104D90008A828B83E58245837003024E53790AAC85
:104DA0000EAD0FAA16AB171216DBE9F51060030261
:104DB0004E56850E82850F83E06402600302510C1B
:104DC000A3125489850882850983A385821285836D
:104DD00013E50E2406F50CE50F12516888828983CD
:104DE000E0FAA3E0F9EA2400F514E439F5157814A3
:104DF00012197A0100002801281B4E07000228F230
:104E00004E0328624E00291C50012944500229EB10
:104E10004F03291C500429AD500C51EE4F703E85B4
:104E20000C82850D83125182FAE9FB8A828B83E022
:104E3000850A82850B831251BE1218F08A828B83F9
:104E4000A3124C58FDAA08AB09120F69740212167E
:104E50009C800375100EA910740502549375100BF5
:104E600080F4EE4F70F7850A82850B837401F0128F
:104E70005197850882850983F07C007D00850E822C
:104E8000850F83A3A3A3A3E02401FAA3E03400FBCE
:104E90001206C3EA4B60418A828B83E02402F885C4
:104EA0000A82850B83E028F0EA2404F8EB3400F949
:104EB00088828983E08512828513831251D0125132
:104EC000BE1218F08A828B83124C52E5082403FA32
:104ED000E5093400FB024E49850A82850B83E024F4
:104EE00004F07C047D007900AA12AB13120F81023A
:104EF0004E56EE4F6003024E5D125197FEA3E0FF47
:104F0000850A82850B837404F0EE85088285098307
:104F1000F0EF851282851383F074031216D1AC82F0
:104F2000AD83EEFAEFFB1252647003024FC88A821F
:104F30008B83A3A312518D74011216D185820E8525
:104F4000830F780E1218F074051216D11219077C0F
:104F5000FF7DFF1206C9740412169C8B0FEA450FE1
:104F60007033850C82850D8312516D1218F0850CFB
:104F700082850D83A31219077C027D007A9D7B84B4
:104F80001204F5740412169CE9700A74011216D109
:104F900074FFF0A3F08E828F83E064027034750C8E
:104FA00002750D00780C1218F08E828F83124C520D
:104FB000E5082404FAE50912457E12169C850A824A
:104FC000850B83E02402800974011216D1EEF0A350
:104FD000EFF074011216D112517EF074011216D145
:104FE000A3125176A3A3A3F0024E56EE4F60030224
:104FF0004E5D850C82850D83124C53AA16AB171299
:1050000007F5850A82850B837402F0EA850882859C
:105010000983F0851282851383EB80CBEE4F60030A
:10502000024E5D125197F8A3E0F9850A82850B8341
:105030007402F0E8850882850983F0E9851282858B
:10504000138380A3850C82850D831248F8120F63A9
:10505000EAFC8C82A882C39EE49F404BE86E7001FC
:10506000EF70047C00801F851882851983E0FAEEBA
:105070002AFAEF3400FBC3EA98EB94005003E08077
:1050800004EECCC39CFCEC850A82850B83F08C0A71
:10509000750B00780A1218F0850C82850D83E02EBE
:1050A000FCA3E03F024E44751007024E56EE4F60DF
:1050B00003024E5D850C82850D83125489850A8218
:1050C000850B837407F08882898312517612515EB2
:1050D000E0851282851383F0E82402FAE93400FBAC
:1050E0008A828B831251761251AF12517EA31251D4
:1050F000B8125187F0E82405F8E93400F98882896C
:1051000083125187A31251D0A3024FE4741D1216CB
:10511000D112526F7003024E53125489880C890DBC
:10512000E8450D7003024E538E108F11781012183F
:10513000F0780A1218F078081218F074061216D1D6
:10514000E0F9AC0EAD0FAA16AB17850C82850D8366
:105150001216DB740612169CE9F510024E56F08802
:10516000828983A322F50CEF3400F50D22E0F50EC1
:10517000750F00780E22E08508828509832212517E
:10518000D72212548DE8221251D7A3A322A3A3A39E
:10519000A3E0FEA3E0FF22850C82850D83E0F8A347
:1051A000E0F5838882E022E0F508A3E0F50922A378
:1051B000A3F08A828B83A322123ECFA3A322F08A7C
:1051C000828B831251C722E0F50A750B00780A2200
:1051D00012515E1251D722E0850882850983A3A36C
:1051E0002274EE1216DD74FE1216868A0A8B0BEC00
:1051F000FAEDFB74141216D1E0F510A3E0F511746A
:10520000161216D1E0FE74181216D1E0F50EA3E0C6
:10521000F50F851882851983AC82AD8312526460C4
:105220003E85188285198312526F602FA3A31251F5
:10523000A7E50845096024780E1218F078101218B6
:10524000F0EEF9AC0CAD0DAA0AAB0B85088285090E
:10525000831216DB740412169C8006790E80027984
:10526000010246A41206C38A0C8B0DEA450D2212D8
:1052700048FC125276221207898A828B83E5824586
:10528000832274F61216DD74FE121686740C121642
:10529000D1125182851882851983F074011216D1BA
:1052A000E9F0E4F508F50978081218F075080278B5
:1052B000081218F074041216D185820885830978C3
:1052C000081218F01207DD740612169C74021216EA
:1052D0009C806474F71216DDEAFEEBFF89087C18E7
:1052E0007D031207F5EA5402600BA908EEFAEFFB02
:1052F0001206B780027901024CC074F61216DD74F2
:10530000FF6A700374FF6B701C7B00EB75F003A4E5
:10531000F8A9F0EC28F8ED39F912533C0BEBC394E3
:1053200002501480E61207C58A088B09A808A9094B
:10533000E849600312533C7F020217AF88828983D9
:1053400074FF123ECDE4F02274F61216DD1207C58A
:105350008A828B83E58245836006A3A3E0FA8002FC
:105360007A007B0080D174F21216DD8A088B09EC7A
:10537000FEEDFF740E1216D1E0F50A1253AC701C4C
:10538000EEFCEFFD7AFF7BFF1253AC7004791180C5
:105390001688828983E508F0A3E509F0888289836D
:1053A000A3A3E50AF079007F060217AF1207C58AAA
:1053B0000C8B0DA80CA90DE8492274EE1216DDEA3B
:1053C000FEEBFF8C088D09890C74121216D1125451
:1053D0008974141216D1124C5374161216D1124835
:1053E000F8750D00EC4D600302547D7402650C608D
:1053F0000302547888828983124C58F9EC2400F512
:105400000EE439F50FEAF4F8EBF4F9EC58F8E50F8F
:1054100059F9E849705DE5082406F8E5093400F912
:10542000880A890B8882F58312458D1207F58A1048
:105430008B11E50E65107004E50F65116042780E62
:105440001218F0850A82850B8312458D1207FB74B2
:105450000212169CE9F50D7027780E1218F08508D7
:1054600082850983A3A312458B12080D74021216BC
:105470009C800D750D808008750D0D8003750D0BDA
:10548000A90D024B5E8E828F8312548D22E0F8A309
:10549000E0F92212169C7F100217AF3400F50D853B
:1054A0000C82F58322E028FEA3E039FF8E828F83F1
:1054B000227916850A82850B831248FC1207D7745D
:1054C000082274F21216DDEAFEEBFF890B74016507
:1054D0000B600E7402650B706379011209EDE970BF
:1054E0005BEEFAEFFB12553F6047750A00800B7CBC
:1054F000177D007900120F81050A9002E5E0F8E5BA
:105500000AC3985021E50A75F017A4F8A9F0850898
:1055100082850983A3A3E028FAA3E039FB8A828B62
:1055200083123FB970C985088285098374FFF0A38F
:10553000F07C187D03EEFAEFFB1207EF0253A7127F
:1055400007BF8A088B09EA45092274F21216DD8A20
:10555000088B09ECFEEDFF740E1216D1124D3F9030
:105560000B2DE0F4603D7A097B00120F8DEA4B6051
:10557000328A828B8374B1F0A3E41251B1A3125129
:10558000AFA3E508F0A3E5091255A6EEF0A3EF12CC
:1055900055A6A3A3E50AF0A3E50BF0900B2DE0F9C7
:1055A000120F990253A7F08A828B83A3A3A3A3A30C
:1055B0002274EA1216DD907803E06442705E900572
:1055C0005FE014F07056C2AF1255CB00782AD0E0DD
:1055D000F618D0E0F6E59F5407F9700590844180F5
:1055E0000390843D7808121556E9C4C0E07829E696
:1055F0005508F50808E65509F509740B78081216E0
:1056000064D0E02508F8906270E0A2E740F8E8C3B3
:1056100033906272F0906270E0D2E0F09003F0E0BC
:10562000F470030259D4E0F875F004A4C8AAF02A73
:10563000F974F228FE740339FFEE2402F582EF3488
:1056400001F583E0F8A3E0F9E849601EEE2402F5D5
:1056500082EF3401F583E0FAA3E0FBEE2401F5824A
:10566000EF3401F583E0F9120FBD8E828F83A3A37F
:10567000A3A3A3A3A3E0F8A3E0F98E828F83A3A33F
:10568000A3A3A3E8F0A3E9F0906054E09003C9F06D
:10569000906055E09003CAF0906056E09003CBF024
:1056A000906057E09003CCF0906058E09003CDF00C
:1056B000906059E09003CEF090605AE09003CFF0F4
:1056C00090605BE09003D0F090605CE0FC9003D1D0
:1056D000F090605DE0FB9003D2F090605EE0FD90A2
:1056E00003D3F090605FE0FA9003D4F09003CFE032
:1056F0008C082508F8E43400F98D08E82508F8E955
:105700003400F98B08E82508F8E93400F98A08E83C
:105710002508FAE93400FBEE24F7F582EF3400F5B2
:1057200083E02AF0A3E03BF08C08EE24F9F582EF49
:105730003400F583E02508F0A3E03400F0EE24FB0C
:10574000F582EF3400F583E02401F0A3E03400F0AB
:10575000EE24FFF582EF3400F583E0F8A3E0F9E8EA
:10576000496042906000E0C333FCE433FDE82CF56F
:1057700082E93DF583E02AF0A3E03BF0906000E091
:10578000FA9003D1E0FCEAC333FAE433FBE82AF8E9
:10579000E93BF9E8244AF582E93400F583E02CF08E
:1057A000A3E03400F09003CFE070119003D2E070DA
:1057B0000BA3E07007A3E070030258B48E828F83BE
:1057C000A3A3A3A3A3E0F8A3E0F9EE240DF582EFD1
:1057D0003400F583E028F8A3E039F9EE240BF582D4
:1057E000EF3400F583E8F0A3E9F0EE240FF582EF43
:1057F0003400F583E4F0EE241CF582EF3400F583E9
:10580000E06401701EEE2420F582EF3400F583E0A1
:10581000F8A3E0F9EE241DF582EF3400F583E8F0FB
:10582000A3E9F09003CAE06052EE241CF582EF3445
:1058300000F5837401F0EE246AF582EF3400F583FD
:10584000E07038EE2474F582EF3400F583E0702BBD
:10585000EE2480F582EF3400F583E0701EEE242004
:10586000F582EF3400F583E0F8A3E0F9EE241DF5AE
:1058700082EF3400F583E8F0A3E9F0906062E07015
:10588000030259678E828F83E0F8A3E0F9E82406CB
:10589000FCE93400FDE82402FAE93400FB120CA50F
:1058A0008E828F83E02412F8A3E03400F988828985
:1058B000830259719003D1E0603AEE240FF582EF34
:1058C0003400F583E4F0EE241CF582EF3400F58318
:1058D000E064017040EE2420F582EF3400F583E0AF
:1058E000F8A3E0F9EE241DF582EF3400F583E8F02B
:1058F000A3E98020EE24FDF582EF3400F583E02457
:1059000001F0A3E03400F0EE241DF582EF3400F541
:1059100083E4F0A3F0EE240BF582EF3400F583E08E
:10592000F8A3E0F98E828F83A3A3A3A3A3E06870FA
:1059300003A3E0696003025823EE240FF582EF34DD
:1059400000F583E060128E828F83A3A3A3A3A3E05C
:1059500064057002A3E0600B7908EEFAEFFB120B0E
:10596000798071793E80F3EE241DF582EF3400F5E5
:1059700083E4F0A3F0906060E0C0E0EE2469F5827B
:10598000EF3400F583D0E0F09003CFE0F8EE246729
:10599000F582EF3400F583E028025AD490055DE0EB
:1059A00064017035120D59EE2467F582EF3400F56D
:1059B00083E070069060607480F0EEFAEFFB120CEA
:1059C00063E96401600E120B97120C5DE9640160DB
:1059D00003120C097F0E0217AFEE2483F582EF3419
:1059E00000F583E06004780480027800E50CC39839
:1059F000F91208A98A0A8B0BEA450B60A7EE2483EB
:105A0000F582EF3400F583E070048A088B09E50C19
:105A10006012850882850983F512E5D9F0A3151275
:105A2000E51270F6EE2483F582EF3400F583E06032
:105A30003774FC250CF50C78081218F0AC0CA90D85
:105A4000EEFAEFFB120BF7740212169CE970197450
:105A500003650D7003025B14E50A24FBFAE50B34C1
:105A6000FFFB120FFF025B147403650D7003025BF2
:105A700019850C0E750F00780E1218F0AC08AD09E0
:105A8000AA0AAB0B120BD3740212169CEE2469F512
:105A900082EF3400F583E064807004747F8001E05D
:105AA000F50878081218F4E50DF50878081218F4CE
:105AB000A90CAC0AAD0B9003F0E0FA7B001208AF22
:105AC000740212169C120D65EE2467F582EF340005
:105AD000F583E014F0E070030259B47508607509AD
:105AE00005750A00750B00E5D914F50CE5D95403CA
:105AF000F50D60207403650D7003025A0EE50C70FD
:105B00000302599CEE2468F582EF3400F583E060CF
:105B10000302599C793D02595A850882850983E020
:105B2000F8A3858208858309603B147003025D1128
:105B3000147003026005147003025D6F24FD70038E
